:1000000000000220916F0000B96F0000A10C0000F9
:10001000BD6F0000BF6F0000C16F00000000000056
:10002000000000000000000000000000C36F00009E
:10003000C56F000000000000C76F0000C96F00001E
:100040003B670000BD43000001210000992600002D
:10005000A9260000CB6F0000651F0000552200009C
:10006000C5240000D5240000CB6F0000CB6F00003A
:10007000CB6F0000CB6F0000CB6F0000CB6F000098
:10008000CB6F0000D5080000CB6F0000CB6F0000E5
:1000900071090000CB6F0000CB6F0000CB6F000038
:1000A000CB6F0000CB6F0000CB6F0000CB6F000068
:1000B0001D220000CB6F00000000000000000000C7
:1000C000CB6F00002D220000CB6F00001524000034
:1000D000E16C0000CB6F0000CB6F0000CB6F000025
:1000E000312F0000000000000000000000000000B0
:1000F00000000000CB6F000000000000CB6F00008C
:1001000000000000000000000000000000000000EF
:1001100000000000000000000000000000000000DF
:1001200000000000000000000000000000000000CF
:1001300000000000000000000000000000000000BF
:1001400000000000000000000000000000000000AF
:10015000000000000000000000000000000000009F
:10016000000000000000000000000000000000008F
:10017000000000000000000000000000000000007F
:10018000000000000000000000000000000000006F
:10019000000000000000000000000000000000005F
:1001A000000000000000000000000000000000004F
:1001B000000000000000000000000000000000003F
:1001C000000000000000000000000000000000002F
:1001D000000000000000000000000000000000001F
:1001E000000000000000000000000000000000000F
:1001F00000000000000000000000000000000000FF
:100200000348044B834202D0034B03B118477047A5
:10021000EC060020EC060020000000000548064B1C
:100220001B1AD90F01EBA301491002D0034B03B1F4
:1002300018477047EC060020EC0600200000000084
:1002400010B5064C237843B9FFF7DAFF044B13B11E
:100250000448AFF300800123237010BDF006002096
:10026000000000009003010008B5044B1BB10449D5
:100270000448AFF30080BDE80840CFE7000000006D
:10028000F406002090030100A3F5803A704700BFF8
:10029000154B002B08BF114B9D46FFF7F5FF0021C2
:1002A0008B460F461148124A121A06F035FF0C4BC6
:1002B000002B00D098470B4B002B00D09847002014
:1002C000002104000D000B4807F060FA07F016F952
:1002D0002000290000F022F807F04AFA0000080088
:1002E000000000000000000000000220F0060020D6
:1002F0000C1E0020617A0000014807F05DBA00BFC3
:10030000DCDA0000014807F057BA00BFE8DA000065
:10031000014807F051BA00BFFDDA000080B5374848
:10032000374C384E384FA6B007F046FA4FF0A0438E
:100330000322C3F85027354807F03EFA03F0B7F818
:10034000334807F039FA0B2003F09EF84AF6CD3314
:1003500001A8ADF8043003F0A6F82E4807F02CFAF7
:100360002D4A1068516802AB03C302A803F09DF840
:100370002A4A1068516804AB03C3294B069308222C
:100380004FF6FF7304A90DF11E00ADF81C3007F005
:100390001BF8022201A90DF1260007F015F808222A
:1003A0000DEB02010AA807F00FF84BF6AA33ADF8DF
:1003B0003030CC238DF8323044F00104012106A8FE
:1003C00003F09AF8B8B9384607F0F6F94FF0A042B2
:1003D0004FF4FA75D2F80435D94301F4801103F4CF
:1003E0008013C2F80815C2F80C354FF47A40A047C4
:1003F000013DFAD1E2E73046E6E700BF15DB000039
:1004000000F9000076DB000057DB000025DB000070
:1004100034DB000044DB00008CDB000095DB0000D7
:100420001C01CC0010B50368292B044604D90749E8
:1004300040F2CD1000F04EFC23681F2B83BF03F069
:100440001F03236002484FF0A04010BD9EDB000058
:100450000003005007B5019001A8FFF7E3FF019AE0
:1004600001239340C0F80C3503B05DF804FB07B5D9
:10047000019001A8FFF7D6FF019A01239340C0F82D
:10048000083503B05DF804FB38B5054D044645F06A
:1004900001054FF47A40A847013CFAD138BD00BFAE
:1004A00070F900002DE9F3413D4F3E4E0524022531
:1004B00017F8013B019301A8FFF7B4FF019B03F577
:1004C000E07340F8235001A816F8013B0193FFF7B1
:1004D000A9FF019B03F5E073013C40F82350E7D1ED
:1004E000152501A80195FFF79DFF019B03F5E0731A
:1004F00040F2032640F82360132401A80194FFF77B
:1005000091FF019B03F5E07340F2031840F823606C
:100510001C2601A80196FFF785FF019B03F5E073F8
:100520001E2740F8238001A80197FFF77BFF019B5E
:1005300003F5E07340F823802846FFF798FF204634
:10054000FFF795FF3046FFF785FF3846FFF782FF3C
:100550001C20FFF77FFF1E20FFF77CFF4FF4FA708F
:10056000FFF792FF1C20FFF782FF1E20FFF77FFF9F
:100570003220FFF789FF1C20FFF76CFF1E20FFF7DA
:1005800069FF4FF4FA70FFF77FFF1C20FFF76FFF42
:100590001E20FFF76CFFFA20FFF776FFD8E700BFB9
:1005A0007BF9000076F9000073B506460D46144647
:1005B00072B601F04BFA01F08BF80028FBD112481B
:1005C00007F0FAF844F201039E420AD044F2020313
:1005D0009E4214D1228861680C4807F0EDF8FFF7BD
:1005E00061FFA668304601F061FC23680195009325
:1005F000024663680648314607F0DEF8EFE7294611
:10060000044807F0D9F8EAE7E1DB0000FADB000074
:1006100015DC00003FDC00002DE9F743054601F042
:1006200015FA01F055F80028FBD12A4B2A4C9E6A96
:100630002A4BE41AE408240444F00104002D44D0B9
:10064000AA692749204601F0B3F9EB680193AB682A
:100650000093D5E900232349204601F0BEF9EB6958
:100660000093D5E904232049204601F0AAF9194B4B
:10067000DB6A990703D51D49204601F095F9DFF89B
:100680007C80DFF87C900025012707FA05F33342D0
:1006900006D058F825201AB14946204601F088F9BD
:1006A00001351A2DF1D1320605D50A4B10495A6B86
:1006B000204601F07DF9330405D5064B0D499A6BB0
:1006C000204601F075F9FFF7EDFE0B49204601F0D9
:1006D0006BF9CCE700ED00E08C040100440401005C
:1006E00059DC00006EDC0000A3DC0000FEDC000032
:1006F0004DDD00006DDD0000CBDC000008F90000DE
:1007000042DD000070477047704770477047704780
:1007100038B50E4B1B680021986806F0FDFD4FF4BC
:100720000041002000F07AFF18B1094A142100F0BE
:10073000BBF8084D00F09EFE0A2445F001054FF479
:100740007A40A847013CFAD138BD00BF28000020FC
:100750003DE2000080F900007047000007B5044B3F
:100760000093044A402300F023FE03B05DF804FB2D
:10077000CD0700000E07002030B50F4D0FCD89B01A
:100780006C460FC495E80F0084E80F00062228236A
:10079000CDE9002309480A4B06930022694600F080
:1007A000A7FB18B1074A462100F07EF8064B00224D
:1007B0001A7009B030BD00BF94F90000000000209D
:1007C00000509D00A7E200000C07002038B50E483D
:1007D0000E4C0F4D002323700378EB5CD2B273B143
:1007E000043002F029FD18B10A4A562100F05CF8E5
:1007F000094B1B7813B12378002BFCD038BD0C308B
:1008000002F0C8F9EFE700BF000000200D0700204C
:1008100074080020A7E200000C07002008B5084873
:10082000084A0378D35C33B1043002F083FCBDE89E
:100830000840FFF7A1BF0C3002F040F9F7E700BF16
:100840000000002074080020FFF796BF10B508488C
:10085000D4B20378074AD35C224623B1043002F0B5
:10086000EBFC204610BD0C3002F094F9F9E700BF14
:10087000000000207408002008B50948094A0378E0
:10088000D35C012243B1043002F050FD002814BFB4
:100890004FF0FF30012008BD0C3002F0EBF9F5E716
:1008A000000000207408002000B583B00290009181
:1008B000019244F2010071466A46FFF775FE03B0EB
:1008C00000BD0000024B4FF43C6043F001031847A9
:1008D000C0F90000F8B51F491F4B0025C1F8405171
:1008E000C1F84451C1F84851C1F84C51C1F8005108
:1008F000C1F804511B684BB3D1F804451749096886
:10090000641A24F07F442F461A68A24209D8A41A18
:1009100015441A7CDE691AB1D3E905201F7490478B
:10092000AEB90F4A0F4B11781B788B4205D10133BA
:10093000DBB2022B08BF0023137012780A4B43F876
:1009400022500A4B4FF48012C3F80021F8BD334601
:10095000DAE700BF00100140600700205C070020BC
:1009600050070020510700205407002000E100E05C
:100970002DE9F74F9F49A04A0B7812789F4D9A4274
:1009800055D00133DBB2022B08BF00239C4A0B7009
:100990009C49166851F82300331823F07F431360F5
:1009A00000222B6817461446944613B942B12B60B7
:1009B00006E01968814228D902B12B60091A196032
:1009C0004FF0010B2B68DFF8509200934FF0000AB4
:1009D000002F46D03C46FF69894B666819688A4AF1
:1009E000A368701A20F07F40904200F2E180034437
:1009F00001202074286823600021C4E90111E1610D
:100A0000002840F0DD802C60E2E7401A0C44D968F1
:100A1000D3F81CE0C3F800C031B1321922F07F4294
:100A2000C3E90121DF611F4673460122BDE70027AC
:100A3000BB46C7E799F802402E68431CDBB29C42D4
:100A400008BF002389F80030182303FB00900379C6
:100A50008468022B6AD0032B00F09480012B00F0F5
:100A6000948099F8000099F801308342E2D12B6814
:100A7000BAF1000F05D1009A9A4202D1BBF1000FE2
:100A800043D0002B41D0D3F800A0604D5C4BD5F88B
:100A900004751C68DFF884813E1B98F8003026F04E
:100AA0007F4603369BB94FF48033C5F84433C5F80D
:100AB0000433574B4FF40032C3F880211A604FF0D3
:100AC0000109C5F80090FFF7FDFE88F80090B245D7
:100AD0002CBF5444A41924F07F44C5F84045D5F8F0
:100AE0000435DB1B23F07F43E41B033324F07F44F6
:100AF000A3420AD9D5F80435C5F84035FFF7E2FE20
:100B0000434B4FF40032C3F80021424B00221A70CD
:100B100003B0BDE8F08F44450BD04046D8F81C80A8
:100B2000B8F1000FF7D1002323749AE7B04630469E
:100B3000F6E784420DD1F3692B6053B93349019034
:100B400001228A602E490B60324B1A70FFF7BAFE01
:100B50000198D8F81C20D8F80030C26112B1116891
:100B60000B4413602B68B34218BF4FF0010ADAE759
:100B70003074F6690123002EFAD1002B3FF471AFD7
:100B80002E606EE700231846F5E7267C002E7FF4E2
:100B900068AFC16861600369A3604369E36083690A
:100BA000A3611C4B1B78002B18BF3146616013E713
:100BB000891B21F07F41994234BF5B1A002317E75C
:100BC0000168994213D3C91A0160E0611BE79B1BBE
:100BD000CE6908463EB131460E68B342F7D8F61AE0
:100BE0000E600E4601462360E661CC61F0E60146E8
:100BF000F2E700BF510700205007002060070020E7
:100C00005C07002054070020FEFF7F000010014019
:100C100000E100E04E070020640700204F0700209D
:100C200072B6024A136801331360704770080020DF
:100C3000034A1368013B136003B962B6704700BFF3
:100C400070080020EFF30583C3F308032BB9EFF31B
:100C50001480C04300F0010070470120704700007D
:100C600008B5FFF7EFFF012803D00449432000F047
:100C700031F8BDE80840FFF7D3BF00BF17E300001D
:100C800008B5FFF7DFFF012803D00449512000F029
:100C900021F8BDE80840FFF7CBBF00BF17E3000015
:100CA0001EF0040F1CBFEFF309800AE0EFF3088089
:100CB0000549064A884201D8904202D88D464FF035
:100CC0000000034B184700000000022000E0012054
:100CD0001906000007B5ADF8000001916A46002131
:100CE00044F20200FFF760FC03B05DF804FB10B5AE
:100CF000034653E8000F0A4643E8002494F0000F2F
:100D0000F7D110BD10B5034653E8002F42EA0100A9
:100D100043E8000494F0000FF6D110BD10B503466F
:100D200053E8000F00EA010243E8002494F0000FAA
:100D3000F6D110BD10B5034653E8002F02EB0100B9
:100D400043E8000494F0000FF6D110BD10B503463F
:100D500053E8002FA2EB010043E8000494F0000FD9
:100D6000F6D110BD0121FFF7CDBF0021FFF7D6BF9F
:100D700010B50446002834D003681BB91A49FF2077
:100D8000FFF7A8FF636823B917494FF48070FFF796
:100D9000A1FFA36823B9144940F20110FFF79AFF9D
:100DA000E36823B910494FF48170FFF793FF238A5A
:100DB00023B90D4940F20310FFF78CFFD4E901235A
:100DC00021689B1ADBB20A60013BDBB2FF2B226871
:100DD00002D10020107110BD1168481C10600B700A
:100DE000F2E70E20F7E700BF6CE3000038B50446D9
:100DF00020B912494FF49270FFF76CFF0020FFF703
:100E00002FFF2268616813688B4215D9591E116043
:100E100013F8013C228AE56802FB03552268A368A7
:100E200011685B1A1179DBB2994200D2137100206C
:100E3000FFF726FF284638BD0025F8E76CE30000E1
:100E400038B50C46054620B90E4940F24710FFF769
:100E500041FF24B90B494FF4A470FFF73BFF00207A
:100E6000FFF7FEFE2A681368591C1160EA68A41A8D
:100E70002A8AB4FBF2F41C70BDE838400020FFF76A
:100E8000FFBE00BF6CE300001FB503788DF8003093
:100E90004368019383688DF80830C368054A03935B
:100EA000054B684653F8213052F82110984705B099
:100EB0005DF804FB78080020800800201FB5037847
:100EC0008DF800304368019383688DF80830C3685B
:100ED000054A0393054B684653F8213052F8211018
:100EE000984705B05DF804FB7808002080080020D2
:100EF000F0B5194B90F800C0DFF86CE043F82C20F7
:100F0000164B16460A6943F82C200C464B7F0EF808
:100F10000C3007460FCC89B06D460FC594E80F0022
:100F200085E80F003B78CDF810C01EF803304BB1B8
:100F3000002E0B4A694608BF3246381D02F000F801
:100F400009B0F0BD002E074A694608BF324607F1D6
:100F50000C0001F0C7FCF3E78008002078080020AF
:100F6000890E0000BD0E00007408002010B5044674
:100F700018B906493120FFF7ADFEA2682AB16369AE
:100F80002168206998470023A36010BDC2E30000D8
:100F90000EB433B5059D044618B911494220FFF738
:100FA00099FE63691BB90E494320FFF793FE23683E
:100FB0001BB90B494420FFF78DFE63681BB9084934
:100FC0004520FFF787FE35B106AB01AA294620462A
:100FD000019300F071F802B0BDE8304003B07047F3
:100FE000C2E30000826830B40468551C8560A154D7
:100FF000D0E901329A4202D330BCFFF7B7BF30BC10
:10100000704700002DE9F84F9946DDE90A4315467F
:10101000824688460A460127AA420FD24F4538BF6A
:101020004F4613F0010B01D164B900240126B9F138
:10103000010F1CD909F1FF396E43F8E70137B2FB04
:10104000F5F2E9E79B0710D5B9F1000F0CBF302688
:101050002026BC42EAD9013C31465046FFF7C2FF88
:10106000002CE2D0BC42F6D1E0E72026F1E7B8FB45
:10107000F6F39D42E0D9DFF83C90B8FBF6F350461A
:1010800019F8031006FB1388FFF7ACFF3346AB4299
:10109000B6FBF5F6F1D2BBF1000F00D034B9BDE8D4
:1010A000F88F20215046013CFFF79CFFBC42F8D846
:1010B000F5E700BFC6F900002DE9F74F0F4690464F
:1010C000054620B9B74940F25220FFF703FE6B698D
:1010D00023B9B4494FF41570FFF7FCFD2B6823B911
:1010E000B04940F25520FFF7F5FD6B6823B9AD49D3
:1010F00040F25620FFF7EEFD002F00F0558117F863
:10110000011B49B92B7B002B00F04E81284603B010
:10111000BDE8F04FFFF72ABF252940F0BD8000262B
:101120003A4612F8013B2D2B25D0302B27D02B2B04
:1011300028D000242A2B07F1010226D1D8F800304C
:10114000191DC8F800101B6817461C443B782E2B4D
:1011500027D101374FF0000A0A20394611F8012B38
:10116000A2F1300CBCF1090F1DD800FB0A22A2F13C
:10117000300A0F46F1E746F001061746D0E746F081
:101180000206FAE746F00406F7E712F8013CA3F17D
:1011900030010929DAD80A2101FB0434303C174612
:1011A000C8E74FF0000A3A4612F8011B01F0FB00B5
:1011B00068281746F8D0782909D86F290BD86329F1
:1011C00064D021D8252967D0582900F095803B7834
:1011D000002B94D196E770390829F8D801A252F86B
:1011E00021F000BF7B130000CF110000CF110000E1
:1011F0000D130000CF110000E3120000CF1100001A
:10120000CF110000F9120000642901D06929DED154
:10121000D8F80020111DC8F80010D2F800B08BEAF1
:10122000EB72A2EBEB724FF001090A21092A37DCBD
:10123000D14538BFD1462CB1BBF1000F01DB72079D
:1012400000D5013CB30702D5BAF1000F03D0F00777
:1012500001D454BB0024BBF1000F32DACBF1000BF8
:101260002D212846FFF7BEFE06F00302022A04D114
:10127000BAF1000F01D144BB0024CDE9004653462A
:101280000A2259462846FFF7BDFEA0E7D8F80030ED
:101290001A1DC8F8002019782846FFF7A3FE96E724
:1012A00009F10109B2FBF1F2C0E7A145D3D2013C3B
:1012B00020212846FFF796FE002CCBD0A145F6D181
:1012C000C9E77107D0D52B21CBE7A145D5D2013C89
:1012D00030212846FFF786FE002CCDD0A145F6D15F
:1012E000CBE7D8F800100A1DC8F80020CDE9004669
:1012F00053460A220968C5E7D8F800100A1DC8F845
:1013000000205346CDE900461022F3E7D8F800301C
:101310001A1DC8F8002016F00106D3F8009024D159
:10132000B9F1000F03D0484605F08AFE0646B442E4
:101330001DD809F1FF3919F8011F00293FF447AF03
:101340002846FFF74FFEF6E728460136FFF74AFE2C
:1013500019F806100029F7D1A642BFF438AF2021B2
:101360002846013CFFF73EFEF6E70026F0E7202185
:101370002846013CFFF736FED9E7D8F800301A1DA1
:10138000C8F80020302128461C68FFF72BFE782182
:101390002846FFF727FE00220823CDE90032214628
:1013A00010226FE708E4000003B0BDE8F08F00BF33
:1013B000F0B595B01D46164608460C4600F00EFDE9
:1013C0001A9B0D93CDE9086500252B46082205A937
:1013D00020460A958DF82C500C9500F027FD079BB0
:1013E0000293069B03939DF814308DF8115003F07F
:1013F0000302012A1DD1BDF81420059DC3F3C203C9
:10140000C2F383168DF81030B20008230EA92046CF
:1014100000F00CFDC5F3952508AB0093324602ABF6
:101420000EA9284600F080FB204600F0DBFC15B03A
:10143000F0BD022AF8D1BDF81650C3F3C203C5F3BC
:1014400089158DF810300827082D2E4628BF08264C
:101450003B4632460EA9204600F0E8FCAD1B08AB27
:1014600002AA31460EA8374400F0C2FB002DEBD192
:10147000DAE7000008B5FFF7E7F90748042100F0B4
:10148000BBFA002803DA05494820FFF723FC044B88
:1014900001225A7108BD00BFB804010055E40000E4
:1014A00014000020037813F0040215D003F00303A6
:1014B000012B03D0022B09D0012070470B68028852
:1014C0000233C2F3831213440B60F5E70B684288C2
:1014D000023303EB9213F7E7104670472DE9F04F04
:1014E000DFF834A10F4687B00446861C002015465D
:1014F000FFF7B6FBDAF800203A60DAE901130B4493
:1015000001339B1A0AF21C470AF583690AF2144850
:10151000B3421BD30021002D77D004F00F04A401A7
:1015200044F0050464F30F01DAF80020DAF808301B
:101530001340033332444AF823100020CAF8002035
:10154000FFF79EFB012007B0BDE8F08F0121384670
:10155000FFF7F0FB4846FFF705FC4046FFF702FCAB
:10156000DAF80400DAF808B0029000EA0B00033061
:101570000AEB800002A9FFF795FF029B0246E0B943
:101580000BEA03010AEB8101C8680390991C01333F
:1015900003EA0B030AEB830300F003000128DB6876
:1015A00002912AD002280BD01A49019240F28910E8
:1015B000FFF790FB019A93460CE00BEA0300D6E795
:1015C0004FEA134BBDF80E30C3F38913033301EB1D
:1015D000930302934046FFF7C8FB10B1029BCAF881
:1015E000043059463846FFF7A5FBDAE901231344D6
:1015F000DAF8002001339B1A8AE74FEA134BBDF853
:101600000C30C3F383130B44E3E7A40544F0060155
:101610008AE700BFC5E40000880800200B4B0C4897
:10162000FF2210B59A600022C3F81824C3E90022F3
:10163000C3F81424012283F8202400F08BFB044615
:1016400010B9044800F00AFC204610BD88080020AC
:10165000A4040100D8F9000030B50A4C71B10A4A5F
:101660000A49121BD20800239A4201D1002030BD42
:1016700031F82350854202D00133F5E7034654F890
:101680003300F4E744040100A4040100EC06002048
:10169000094B013903EBC000032909D8DFE801F049
:1016A000020A0406022070470079704740797047AB
:1016B000002070470420704744040100034BD3E925
:1016C0000030C31A58425841704700BF88080020B4
:1016D0002DE9FF47FFF7F2FF002840F083807E4DA1
:1016E000C5F81804BFF34F8F6868AC6800902040BD
:1016F000033005EB80006946FFF7D4FE009B18B16C
:10170000D5F81824002A69D004EA03029F1C01338B
:1017100005EB8202234005EB8303D268DB6802936A
:1017200002F00303022B019200976ED1BDF8063040
:101730006A48C3F38918B8F1500FC14628BF4FF06B
:10174000500969F38F1309F10801ADF8063000F074
:1017500019FB0646002800F0A98000F03FFB00239B
:101760003046082201A900F04BFB24EA07030133AD
:10177000B9EB830F4FEA83003FD95FFA89F900285C
:1017800037D004EA0701C4B2A9EB040A0331A14629
:10179000534C05EB81015FFA8AFA08234A4630462A
:1017A00000F02EFB34B109F10803524621463046C1
:1017B00000F026FB08F1030807EB98070097D5F81F
:1017C0001834D5F81044002B5FD0304600F00AFBE7
:1017D000FFF774FF80F00100C0B204E02A689A426B
:1017E00004D86A60002004B0BDE8F08704EA030072
:1017F0007EE73B4904468246CFE704EA070103310E
:1018000008234A4605EB8101D1E7012B4ED1BDF8F3
:1018100004303248C3F38311062928BF062161F33F
:101820008913023101F00F018900ADF8043000F096
:10183000A9FA0646002839D000F0D0FA0023082281
:1018400001A9304600F0DCFA0027BDF80420C2F3FD
:101850008312BB00BA4203F10803B0D900994A1CB5
:1018600021400331009205EB81010422304600F053
:10187000C7FA0137E9E7E3685B7923B123683146AA
:101880001B6820469847E3681C68002CF3D130465B
:1018900000F0A8FA2046FFF7E3F9D5F818340BB9A1
:1018A000009B6B600020FFF7EBF991E7D5F810443F
:1018B00054B90C4B0C480D49C01AC008000440F044
:1018C000020000F071F883E7236820469B68984780
:1018D000E3681C68ECE700BF88080020A40401004E
:1018E00094080020440401008C0401001CE5000061
:1018F0002DE9F74F274E04460F46914601A90122D4
:101900001846D6F808A09846FFF7E8FD78B3019D81
:101910000023A81C434503EB000132D100211E48DF
:10192000FFF7E5F94FEA144980F3100B1B4B1C4AF3
:101930009B1AB9EBD30F04D31A494FF4D770FFF7B2
:10194000C9F96B1C03EA0A03E40006EB830304F005
:10195000380449EA0B4205EA0A0544F00104DA605A
:10196000033544EA881343EA872346F8253096F87E
:1019700020341BB1FFF7ACFE0028FBD103B0BDE85B
:10198000F08F01EA0A0106EB810159F82320CA60B1
:101990000133BFE788080020A40C0020A404010044
:1019A00044040100C5E4000000231A46FFF7A0BF6D
:1019B00007B50123019201AAFFF79AFF03B05DF872
:1019C00004FB1FB5CDE90123069B039301AA032362
:1019D000FFF78EFF05B05DF804FB1FB5CDE90023CE
:1019E000069B0293079B03936A460423FFF780FF3D
:1019F00005B05DF804FB000030B51349D1F8104480
:101A00000346002022464AB9DC682071D1F8104410
:101A100084B9C1F81034DB681A600AE0D26815791D
:101A2000854201D01268EEE701300A28EAD14FF072
:101A3000FF3030BDE468DA6824681460D1F81024FF
:101A4000D2681360F5E700BF8808002038B5084B5E
:101A50000125D3F8104483F8205404B938BDE36855
:101A60005D71236820465B689847E3681C68F4E76B
:101A70008808002010B5037A052B0C460FD0437A56
:101A800023B1084A08492046FFF782FA0749204651
:101A9000FFF77EFA2046BDE81040FFF767BA002A3C
:101AA000F8D0F3E731E5000036E5000056E5000028
:101AB00073B5C38804460D4633B1144A00921449E5
:101AC000144A2846FFF764FA217A05291CD0637A64
:101AD0004BB1A088FFF7DCFD0F4B104953F82020D5
:101AE0002846FFF755FA227A0D4BA08853F822605A
:101AF0000021FFF7B1FD0B4903463246284602B0EC
:101B0000BDE87040FFF744BA02B070BD31E5000097
:101B100041E5000039E50000E4F9000036E5000089
:101B200008FA000059E500002DE9F04385B01F4692
:101B30000C9D002395F80C902B7306460C4690469E
:101B400029463846FFF7B4FFB8F1060F09D8DFE899
:101B500008F00412181F2833400031462846FFF7CA
:101B600017FA002229463846FFF784FF85F80C90C3
:101B700005B0BDE8F083226831462846FFF708FA31
:101B8000EFE7D4E9002331462846FFF701FAE8E7FA
:101B9000A3680093D4E9002331462846FFF7F8F9FB
:101BA000DFE7E3680193A3680093D4E9002331469B
:101BB0002846FFF7EDF9D4E723690293E368019320
:101BC000A3680093D4E9002331462846FFF7E0F9E3
:101BD000C7E76369039323690293E3680193A368EA
:101BE0000093D4E9002331462846FFF7D1F9B8E73E
:101BF00008292DE9F84F80460E4617461C463BD86B
:101C0000002593F80C901D7319461046FFF750FFFE
:101C1000DFF88CA0DFF88CB0AE422FD918F8052081
:101C200059462046FFF7B4F90135082DF4D119497A
:101C3000194DDFF874B02046FFF7AAF94FF0000AFB
:101C4000564522D918F80A207E2A1CD81BF8021003
:101C500011F0970F08BF2E2210492046FFF798F980
:101C60000AF1010ABAF1080FEAD1012221463846E9
:101C7000FFF700FF84F80C90BDE8F88F514620462E
:101C8000FFF786F9D0E72E22E6E729462046FFF740
:101C90007FF9E5E76DE500006BE500006FE500000A
:101CA00069E5000063E50000210101002DE9F74F1F
:101CB00099469DF83030009388469346064618B9F9
:101CC0002349B620FFF706F8F28871794A43043AAF
:101CD0004A4505D81E490192C420FEF7FBFF019A30
:101CE000DBF80070B6F806A007EB0901914209F194
:101CF000040488BFA2EB0907B4FBFAF5CBF8007027
:101D00000AFB154445B9AAEB040BBB4528BFBB46EB
:101D10002FB903B0BDE8F08F3668013DF2E7009BB4
:101D2000043408EB050034445A466BB12146A7EB56
:101D30000B0705F049FBBA455D443668D3464FF0C2
:101D4000000428BFBB46E3E701462046EFE700BF9B
:101D5000BDE50000FFF70CB8F8B546790146721EE4
:101D60000546002393422D6803D30024A64202D8DF
:101D7000F8BD0133F6E70F682846FFF761F8013434
:101D80003946F3E72DE9F041CD1C078A0646FFF7F7
:101D90002DF8043F3D440446B5FBF7F5D0B14FF4B0
:101DA0008073EDB2C7808380013D066080460027C6
:101DB000AF4210D23046FFF719F840B163790133D2
:101DC00063710137C8F8000006608046F0E72046DE
:101DD000FFF7C2FF00242046BDE8F0810121043056
:101DE000FEF7A8BF10B5012104460430FEF7AEFF90
:101DF000C0B220B92046BDE81040FFF7ADBF10BD0E
:101E00001FB5144603920022009203AAFFF74EFF6B
:101E1000039BA34206D00449F62004B0BDE810405D
:101E2000FEF758BF04B010BDBDE500001FB5144655
:101E300003920122009203AAFFF738FF039BA342FB
:101E400007D005494FF4807004B0BDE81040FEF79C
:101E500041BF04B010BD00BFBDE500008268002393
:101E6000936082681361826853618268D36082687C
:101E7000536082681360704710B50B4AA2F58C73EB
:101E80009A4201D800200CE0D11A091103EBC104D9
:101E900053F83110814205D802D204F10803EFE76C
:101EA000606810BD2246EBE734FB000008B5FFF781
:101EB000E3FF024B002808BF184608BD34FB0000B2
:101EC00000F1804000F5C040002382B00360036849
:101ED0000193019B02B07047C208012300F0070084
:101EE0008340885C03438B547047000010B503683F
:101EF000292B044604D9074940F2CD10FEF7EAFE2B
:101F000023681F2B83BF03F01F03236002484FF099
:101F1000A04010BD9EDB00000003005013B50190EF
:101F200001A80C46FFF7E2FF019B00EB8300D0F80D
:101F3000003723F44033C0F80037D0F8003743EAC5
:101F40000443C0F8003702B010BD00004FF0A043BA
:101F5000D3F810350360024BD3F810354360704757
:101F6000000300502DE9F04F00248BB0CDE902446E
:101F7000604D4FF48072012102F1804303F5C043AC
:101F80001B68012B07D1D5F804330B4203D090B264
:101F9000FFF796FF0C430432B2F5907F4FEA410100
:101FA000EAD1544BD3F87C31012B08D14FF4BE70E9
:101FB000FFF786FF02A844F00044FFF7C7FFE3B233
:101FC000D3B14D4F00250126344210D0AB0003F1B0
:101FD000804303F5C043D3F81005D3F8101557F824
:101FE000253023B1C1F30141C0F3052098470135E5
:101FF000082D4FEA4606E7D1002C77DA0023CDE919
:1020000004334FF0FF33CDE90633DFF8ECB03B4B40
:10201000019300273D46019B13F9014F0193631C77
:102020004ED0C4F3C2080122E3B204F03F0604F02C
:10203000070402FA04F408F128020DEB020818F86C
:10204000102C22423CD00BEB06024FEA931A92F975
:1020500030205BF82290B9F1000F07D1BAF1030FDD
:102060002ED104A93046FFF737FF02E0BAF1030F83
:10207000F7D008A80896FFF739FF089A18F8201C2F
:1020800002F5E072214250F82220C2F3014206D04C
:10209000022A15D1BAF1030F0CD1514605E0032AEB
:1020A0000ED1BAF1030F05D102213046FFF736FFFA
:1020B0000135EDB2B9F1000F02D051463046C847A4
:1020C0000137042FA7D18DB108A8FFF73FFF029B6E
:1020D000089A9A42099B02D103998B4206D0029238
:1020E0000393049A059B0692079390E70BB0BDE813
:1020F000F08F00BF00600040140E00206D0E002025
:1021000010B5054C23681BB904495120FEF7E2FDC8
:102110002368BDE8104018477C0E0020AEE900009F
:1021200038B50C4628B90C497720FEF7D3FD0020BE
:1021300038BD0A4B9842FAD10020FEF791FD084BBA
:102140001D7915B901221C601A710020FEF798FD57
:10215000002DECD01120EBE7AEE90000002000409C
:102160007C0E002018B906499B20FEF7B3BD054B35
:10217000984201BF044B00221A601A71704700BFD9
:10218000AEE90000002000407C0E002000234350F8
:1021900082B043580193019B02B0704770B5D0F8EC
:1021A000103105460C4653B14FF48871FFF7EEFF2E
:1021B00063795A0703D523680BB101209847D5F8F6
:1021C00014315BB14FF48A712846FFF7DFFF637962
:1021D0001B0703D523680BB102209847D5F81C31A3
:1021E0005BB128464FF48E71FFF7D0FF607910F095
:1021F000100002D1236803B19847D5F8043163B1C8
:102200004FF482712846FFF7C1FF01232371236831
:102210001BB1BDE870400320184770BD014902485A
:10222000FFF7BCBF840E002000C0014001490248F6
:10223000FFF7B4BF8C0E00200010024000F1804078
:1022400000F5E040002382B0036003680193019B26
:1022500002B07047F0B5544B544CD3F8043194F8A5
:102260002E2085B0002B3BD04FF48270FFF7E6FFA5
:102270002AB394F82F3013BB4B4AD2F80031002B0D
:1022800032D04FF48070FFF7D9FF638B94F82D00A4
:10229000834250D921891B1A9BB289B26383CB1A1E
:1022A000616801EB4301C2F82C16C2F830064FF406
:1022B0008270FFF7C3FF3C4B01225A6014E0636851
:1022C00002932389ADF80C30E36800218DF80410E7
:1022D00033BB2374236801A89847002384F82F3068
:1022E00094F82E30002BC7D12F4BD3F810315BB1AF
:1022F0004FF48870FFF7A2FF0023237402238DF8A8
:10230000043001A823689847274BD3F814310BB346
:102310004FF48A70FFF792FF0023237405B0F0BDDD
:10232000208B608363602081E160002AD2D11E4B44
:1023300001221A60CEE7BAD1E168012084F82F00AB
:1023400031B100206083C2F82C16C2F83036AEE7F7
:102350006183ACE766694FF000470125002EDDD0B0
:10236000B6FA86F227FA02F34632920026EA03060C
:1023700002F1804303F5E0431B68002BEED01046CA
:10238000A2F58C72FFF75AFFD30882F00402C2F361
:1023900080028DF808308DF8045023688DF80920EC
:1023A00001A89847DAE700BF00700040940E0020B3
:1023B00010B50368292B044604D9074940F2CD1013
:1023C000FEF788FC23681F2B83BF03F01F032360E5
:1023D00002484FF0A04010BD9EDB000000030050FB
:1023E00007B5019001A8FFF7E3FF019A012393408D
:1023F000C0F80C3503B05DF804FB07B5019001A8E7
:10240000FFF7D6FF019A01239340C0F8083503B0C7
:102410005DF804FB13B5144BD3F8182112B3002256
:10242000C3F81821D3F81831104C0193019B23688D
:1024300023B90F494FF42770FEF74CFCE07FFF28CB
:1024400003D0A37F5BB1FFF7CBFF00236377237239
:10245000D4E90031074802B0BDE810401847FFF743
:10246000CCFFF2E702B010BD00300240C40E0020E5
:102470000BEA0000CC0E00202DE9F74300240646AD
:102480000F4600F5A0754FF48038A1462B688BB13C
:10249000D6F8043308FA04F21A420BD0C5F80090BB
:1024A0002B680193019BA30003F5A07398B2D7E9B1
:1024B000003198470134042C05F10405E6D103B03E
:1024C000BDE8F08301490248FFF7D6BFE80E0020BF
:1024D0000080004001490248FFF7CEBFF40E002003
:1024E000009000400023435082B043580193019B69
:1024F00002B070470A7B0346032A2CD8DFE802F0BB
:1025000024281C028868154A904204D1D3F84C252F
:102510000869904209D1886840F2022290421AD19B
:10252000D3F84C254969914215D000200622C3F802
:102530000005C3F800257047D3F84C250869904280
:10254000F3D1D3F83C25EDE7D3F84C250969EAE748
:10255000D3F83C25FAE70120704700BF00020400D1
:10256000F0B50B6887B005460C4623B9484940F2E0
:102570008620FEF7AFFBD5F82431B3B14FF492714A
:102580002846FFF7AFFFD5F8043173B9A368C5F843
:1025900008330223A360A368C5F8043301232B6228
:1025A0006B6184F82E3007B0F0BDD5F804316BB301
:1025B0004FF48271284604F10C07FFF793FF0FCF09
:1025C00001AE0FC63B68336094F82E303BB921460C
:1025D0002846FFF78FFF80F0010084F82E004FF4AB
:1025E000B0712846FFF77EFF4FF4AE71FFF77AFF18
:1025F00094F8303013B194F82E30CBB10023C5F8E5
:102600000032A360234BC5F8083311E04FF4A471E6
:102610002846FFF767FF237B1BBB04F10C070FCF96
:1026200001AE0FC63B68336094F83030002BE6D023
:10263000D5F8C434C5F8C4349A0724D413F0050F70
:1026400023D194F82E309B00DBB28DF8003094F843
:1026500030300BB984F82F30D4E900316846984700
:10266000A1E74FF40073C5F8003240F20223A360E3
:1026700003F1CE73C5F80833A368C5F8043301230A
:10268000AB602B628FE70123DFE70223DDE700BFAA
:1026900062EA000002029C0101490248FFF760BFA4
:1026A000000F00200030004002494FF04020FFF7AB
:1026B00057BF00BF340F00200023435082B043585F
:1026C0000193019B02B070470A4610B54FF48E711A
:1026D000FFF7F2FF136A9168C95C136A0133136252
:1026E000C0F81C1510BD08B502464FF49271006881
:1026F000FFF7E2FF10684FF48471FFF7DDFF136806
:1027000001221A6008BD000010B50368292B044699
:1027100004D9074940F2CD10FEF7DCFA23681F2BDD
:1027200083BF03F01F03236002484FF0A04010BD99
:102730009EDB00000003005007B5019001A8FFF7E1
:10274000E3FF019B03F5E073022240F8232003B06E
:102750005DF804FB10B58B690A464FF4847123B908
:10276000FFF7AAFFD0F8183510BDFFF7A5FF536A91
:10277000D168D0F81805C854536A01335362F3E79F
:102780001FB501238DF80030044BCDE90110D3E9CA
:1027900000126846904705B05DF804FB680F002002
:1027A00030B54E4DD5F804339A0585B051D5D5F8DE
:1027B0002431002B4DD04FF492712846FFF77CFF57
:1027C0004FF40173C5F80833454B93F829200AB933
:1027D00001226A60414902228DF80020D1F880244C
:1027E000C1F8802403929A690292DA680192002269
:1027F000C3E906226846D3E9001290473748D0F86B
:102800001C315BB1364A5169136A99424ED992F82C
:102810002830002B4AD11146FFF756FF2F48D0F839
:102820004431002B57D04FF4A271FFF745FF2C4BDA
:1028300093F829200AB1012202609A69002A4AD03D
:10284000586AD96800229A6105B0BDE83040FFF7A8
:1028500097BFD5F804335B07D0D5D5F80831002BE6
:10286000CCD01F4C1D482146FFF774FF636AA26954
:102870009A42C3D1E36953B1A3612369E168E3607C
:102880000023606AE3616362FFF77AFFB6E794F8BA
:1028900029300BB901236B60104B4FF40172C3F860
:1028A00008230023606AE168A361EDE70B484FF459
:1028B0008E71FFF701FF5369002BAFD05169029170
:1028C000002391688DF80030019153616846D2E988
:1028D00000139847A2E705B030BD00BF00200040BC
:1028E000680F00202DE9F743054691460C4619B9BB
:1028F0006B49AA20FEF7EEF995F80480694E2C2367
:1029000003FB086393F82A30002B40F0C48066492B
:102910002868FFF705FC0746002840F0BE802368C2
:102920005A1C13D001A80193FFF7EEFE019A012370
:102930009340C0F808352368019301A8FFF7E4FE2F
:10294000019B03F5E073032240F823206368581CC1
:1029500009D001A80193FFF7D7FE019B03F5E073AF
:10296000002240F823202B68A269C3F82425217D8A
:10297000637D2A680B43C2F86C35D4E900122B68DA
:10298000C3F81425C3F80C15237D012B2AD1A368A5
:10299000591C09D001A80193FFF7B6FE019B03F56E
:1029A000E073002240F82320E3685A1C13D001A8EA
:1029B0000193FFF7A9FE019A01239340C0F808355F
:1029C000E368019301A8FFF79FFE019B03F5E07305
:1029D000032240F82320D4E902122B68C3F808250B
:1029E000C3F810152C2303FB08F3F218C2F8049067
:1029F0002269F250B9F1000F39D0286894F81C9080
:102A00002A4A4FF48E71FFF757FE28684FF4A271DF
:102A1000FFF752FE2B68C3F804232C68B9F1070FA7
:102A200044F3073403D922496B20FEF753F9002CF5
:102A3000B6BF204B04F1604404F00F044FEA49197B
:102A40005FFA89F9AABF04F5614403F8049084F899
:102A500000932B6843F30733002B08DB012259094D
:102A600003F01F0302FA03F3134A42F821302B68E4
:102A70000422C3F800252C2303FB08660023C6E9C3
:102A8000063386F829307361012386F82A303846E8
:102A900003B0BDE8F0830827F9E71127F7E700BF87
:102AA000B3EA0000680F0020A127000080000200A8
:102AB000FFEA000014ED00E000E100E02DE9F8433A
:102AC000036806792A4D0022C3F800252C2303FB56
:102AD000065304465B68B3B10368264AC3F808236B
:102AE000036843F30733002B0DDB5A09012103F080
:102AF0001F03994002F120031F4A42F82310BFF33D
:102B00004F8FBFF36F8F23684FF0FF32D3F80C0560
:102B1000D3F81495D3F80875D3F81085C3F81425A5
:102B2000C3F80C2523689042C3F80825C3F8102584
:102B300001D0FFF701FEB9F1FF3F02D04846FFF791
:102B4000FBFDB8F1FF3F02D04046FFF7F5FD7B1CCF
:102B500002D03846FFF7F0FD2068FFF703FB2C2377
:102B600003FB0655002385F82A306B60BDE8F88327
:102B7000680F00208402020000E100E00279044BAB
:102B80002C2101FB02335869003818BF012070471F
:102B9000680F00202DE9F84FDFF8D48007792C2347
:102BA00003FB0783064693F82A30012B8946924699
:102BB00004D02E494FF48C70FEF78CF8B9F1000F59
:102BC00004D12A4940F21910FEF784F8BAF1000F37
:102BD00004D126494FF48D70FEF77CF83046FFF79C
:102BE000CDFF044600283CD12C2507FB058B4FF474
:102BF0008E71CBF814A0CBF80890CBF820008BF89E
:102C000028003068FFF758FD336801229A60306869
:102C10005946FFF759FDDBF804305D461BBB3068B1
:102C2000DBF814402B6A9C4211D83368D3F81C217E
:102C3000002AFBD00122DA6000202C2303FB07834B
:102C400000225A61BDE8F88F95F828303BB9D0F8DA
:102C50001C31002BF8D05946FFF736FDE2E70F2074
:102C6000EBE71120EEE72046ECE700BFB3EA0000F7
:102C7000680F00202DE9F843464C06792C2303FB0E
:102C80000643054693F82A30012B8846174604D0A0
:102C900041494FF4B670FEF71DF8B8F1000F04D1AA
:102CA0003D4940F26D10FEF715F827B93A494FF447
:102CB000B770FEF70FF82C2303FB0643596821B1C8
:102CC0002B684FF40172C3F808232C2303FB06433F
:102CD0009A6952B1DA69002A3FD021B12B684FF4CA
:102CE0000172C3F80423112035E09F61C3F80C8002
:102CF0005A6217462C2303FB0643DF6193F8293001
:102D00001BB912B92846FFF7EEFC2C2707FB064833
:102D10002868D8F80430A3BB4FF4A2714746FFF7E8
:102D2000CBFC2868D0F82421D0F80811D0F8443121
:102D3000194316D1002AF4D000232C2101FB0644AC
:102D40000021A16112BB1BBB94F829102B68012242
:102D5000A9B11A600020BDE8F883C3F810800122F1
:102D6000C8E753EA0209E8D13946FFF7F3FCD8F87F
:102D70002430D8F818209A42D3D84A46DCE75A6063
:102D8000E8E74FF40173C0F80433E3E70320E2E718
:102D90000F20E0E7680F0020B3EA00000023435053
:102DA00082B043580193019B02B070471FB50123C5
:102DB000CDE901218DF80030D0E90013684698472D
:102DC00005B05DF804FB000010B50368292B04462C
:102DD00004D9074940F2CD10FDF77CFF23681F2B73
:102DE00083BF03F01F03236002484FF0A04010BDD3
:102DF0009EDB00000003005007B5019001A8FFF71B
:102E0000E3FF019B03F5E073022240F8232003B0A7
:102E10005DF804FB7FB5D0F8246105460C46002E12
:102E20005CD04FF49271FFF7B9FF02238DF80030A8
:102E3000D0F88034C0F880340393D0F83C35029346
:102E4000E36801930023C4E906336846D4E900131C
:102E50009847D5F844317BB14FF4A2712846FFF76B
:102E60009DFFA36943B10023C4E90633E268D5F8A6
:102E70003C152046FFF79AFFD5F82031ABB14FF44F
:102E800090712846FFF78AFF0123EB60636963B105
:102E9000D5F84C2502920023A2688DF800306361BA
:102EA0000192D4E9001368469847D5F858319BB190
:102EB0004FF4AC712846FFF771FF636963B1D5F831
:102EC0004C2502920023A2688DF8003063610192C4
:102ED000D4E900136846984704B070BDD0F81031AB
:102EE000002BB6D04FF48871FFF758FFD0F83C356F
:102EF000A1699942ADD1E369E26873B1D0F80032BB
:102F000023F02003C0F80032E369A3612369E36082
:102F1000E6612046FFF74AFF9BE7A361F9E700005F
:102F200001490248FFF776BF940F002000200040BF
:102F300001490248FFF76EBFB80F00200080024031
:102F40002DE9F743054691460C4619B97249CF2041
:102F5000FDF7C0FE95F80480704E242303FB086340
:102F600093F82030002B40F0D3806D4B286853F845
:102F70002810FFF7D5F80746002840F0CB802368DB
:102F80005A1C13D001A80193FFF71EFF019A0123D9
:102F90009340C0F808352368019301A8FFF714FF98
:102FA000019B03F5E073032240F823206368581C5B
:102FB00009D001A80193FFF707FF019B03F5E07318
:102FC000002240F823202B68A269C3F82425217D24
:102FD000637D2A680B43C2F86C35D4E900122B6874
:102FE000C3F80C15C3F81425237D012B2AD1A3683F
:102FF000591C09D001A80193FFF7E6FE019B03F5D8
:10300000E073002240F82320E3685A1C13D001A883
:103010000193FFF7D9FE019A01239340C0F80835C8
:10302000E368019301A8FFF7CFFE019B03F5E0736E
:10303000032240F82320D4E902212B68C3F80815A5
:10304000C3F81025242303FB08F3F218C2F80490F8
:103050002269F250B9F1000F48D0286894F81C900A
:10306000304A4FF48871FFF799FE28684FF4907149
:10307000FFF794FE28684FF49271FFF78FFE2868DF
:103080004FF4A271FFF78AFE28684FF4AC71FFF786
:1030900085FE2B68C3F804232C68B9F1070F44F3AD
:1030A000073403D920496B20FDF714FE002CB6BF6E
:1030B0001E4B04F1604404F00F044FEA49195FFA13
:1030C00089F9AABF04F5614403F8049084F80093D9
:1030D0002B6843F30733002B08DB0122590903F067
:1030E0001F0302FA03F3124A42F821302B68082228
:1030F000C3F80025242303FB08660023C6E9063332
:103100007361012386F82030384603B0BDE8F083B0
:103110000827F9E71127F7E748EB0000940F002094
:1031200048FB000010034200FFEA000014ED00E03D
:1031300000E100E02DE9F843364D067902682423CA
:1031400003FB065304465B68ABB1334BC2F808334C
:10315000036843F30733002B0DDB5A09012103F009
:103160001F03994002F120032C4A42F82310BFF3B9
:103170004F8FBFF36F8F2268D2F8003223F0200305
:10318000C2F80032236801225A6020684FF4AC7103
:10319000FFF704FE2368DA602368D3F85821002A79
:1031A000FBD00022C3F8002523684FF0FF32D3F88C
:1031B0000C05D3F81495D3F80875D3F81085C3F827
:1031C0000C25C3F8142523689042C3F80825C3F8DA
:1031D000102501D0FFF710FEB9F1FF3F02D048469D
:1031E000FFF70AFEB8F1FF3F02D04046FFF704FEAA
:1031F0007B1C02D03846FFF7FFFD2068FEF7B2FFC8
:10320000242303FB0655002385F820306B60BDE8BE
:10321000F88300BF940F00201003420000E100E09B
:103220000279044B242101FB02335869003818BF8E
:1032300001207047940F00202DE9F047394F90F896
:1032400004A0242303FB0A73054693F82030012BC6
:103250008846914604D0344940F22D10FDF73AFDDE
:10326000B8F1000F04D130494FF49770FDF732FDEB
:10327000B9F1000F04D12C4940F22F10FDF72AFDBF
:103280002B79012B02D8B9F5803F04D326494FF49E
:103290009870FDF71FFD08F06043B3F1005F3AD16D
:1032A0002846FFF7BDFF0446002836D1242606FB3A
:1032B0000A764FF49071C6F81490C6F80880286812
:1032C000FFF76CFD4FF4AC712868FFF767FD2B68C2
:1032D0007269B168C3F84415C3F848252B68012208
:1032E0009A607368DBB92B68D3F82021D3F85801B2
:1032F0000243F9D068B90122DA602A68D2F858315D
:10330000002BFBD0242303FB0A7700237B61BDE85D
:10331000F0870F20F6E71020F9E71120F7E72046A5
:10332000F5E700BF940F002048EB00002DE9F843BB
:103330004B4D90F80480242303FB0853044693F874
:103340002030012B0F46164604D046494FF4C0707A
:10335000FDF7C0FC27B9434940F28110FDF7BAFCE4
:1033600026B940494FF4C170FDF7B4FC2379012B15
:1033700002D8B6F5803F04D33A4940F28310FDF7F6
:10338000A9FC07F06043B3F1005F67D1242303FB7E
:103390000853596821B123684FF40472C3F8082315
:1033A000242303FB08539A695AB1DA69002A43D0EF
:1033B00021B123684FF40472C3F804231120BDE83F
:1033C000F8839E61DF609146242303FB08584FF485
:1033D0008871C8F81C202068FFF7E0FC20684FF4D3
:1033E000A271FFF7DBFC2368C3F83475C3F83865B6
:1033F0002368B9F1000F24D101221A6026792368CD
:10340000242202FB0652526812BBD3F81011D3F8E3
:103410004421D3F82401114302D10028F5D00A46F3
:10342000242303FB06550023984218BF03209A4229
:10343000AB6118BF0F20C2E71F6132464FF0010990
:10344000C2E7D3F8002242F02002C3F80022D5E7F9
:103450004FF40472C3F804230020B0E71020AEE755
:10346000940F002048EB000007B501A801F0D6FE3C
:1034700020B90190019803B05DF804FB019B002B7B
:10348000F8D101230193F5E738B5044601F0BCFDFE
:103490000546204601F0BEFDA54203D0BDE83840F8
:1034A00003F0C4B838BD01F0EFBD01F0F9BD08B5B7
:1034B00002F0ACFB00F066FE03F008F901F05AFCE4
:1034C00001F06CFD03F090F803F0E2FA01F068FD02
:1034D00003F09BF803F058FC03F09BF802F0C2FEE7
:1034E00002F04AFE01F02CFE03F060FC01F048FE01
:1034F000BDE8084002F0B2BF07B50B460021024606
:10350000CDE90011084603F087F803B05DF804FB2D
:1035100008B590F8803033B1074B084A4FF4F87182
:10352000074803F04BFE03F07FF820B9054B034A30
:103530004FF4FB71F4E708BD9BEB000050FB00006B
:10354000B3EB000043ED00007047FFF7E1BF70B53B
:1035500004460D461646FFF787FF324603462946C6
:103560002046FFF7F2FF70BD704770477047704705
:10357000704700F1804000F58050002382B0036066
:1035800003680193019B02B070470000034B186869
:1035900008B190F8800000F001007047EC0F0020A7
:1035A00008B5FFF7F3FF08B1014B186808BD00BF6D
:1035B000EC0F002000BF00BF00BF00BF00BF00BF76
:1035C0007047000008B5084BD3F85035DBB243B95B
:1035D000064BFFF7EFFFD3F83C01003818BF01207E
:1035E00008BD0120FCE700BF001000400070014052
:1035F000134B144AC3F8482500F1804000F5805071
:10360000C3F84C0521B102F5FD424832C3F82C291C
:103610000D4AC3F8402502F5AF3202F59672C3F8A1
:10362000442529B1D3F8002842F08002C3F80028CD
:10363000034B8022C3F804254022C3F804257047B9
:1036400000F001403C71014010110040074B012285
:103650001A61D3F8002222F48072C3F8002203F525
:10366000B0334FF48072C3F80825704700900040D3
:10367000034B1B781BB1034B1022C3F80823704780
:10368000DC0F00200010004010B5044602F0D6FD0B
:10369000B0F5C07F0B4A12D3C009811EB1EBD41F15
:1036A0004FEAD41396BFA4EBC1140024C31E1460C8
:1036B000054AC3F31403C2F86436012010BD146038
:1036C0000020FBE7E00F00200010004013B501A828
:1036D00001F0F2FC9DF805009DF8044001F028FD82
:1036E0009DF807309DF806201B0643EA024323435A
:1036F000034A43EA0023C2F86C3602B010BD00BF93
:103700000010004008B501F06DFDBDE80840002044
:1037100002F0AEBD08B5054BD3F8480500F07F00B8
:1037200001F0F1FC404240B208BD00BF0010004073
:1037300038B50446FFF7EEFF23782344054613F817
:10374000010C01F0E7FC02B29200FF2A28BFFF2221
:1037500029462046D2B2BDE8384002F046BF0000FC
:1037600038B5074B1D6804460146284601F09CFA0F
:1037700028B121462846BDE8384002F03CBF38BD9C
:10378000E40F002010B5044601F0E2FB204602F0F1
:103790002EFFBDE8104001F00BBB10B5044601F050
:1037A000D7FB2046FFF7C4FFBDE8104001F000BB87
:1037B000144B4022C3F808258022C3F808254FF493
:1037C0008072C3F80825104A01211161D3F800085E
:1037D00020F08000C3F800080020C3F82C09116114
:1037E000D2F8003223F48073C2F80032074B1B7802
:1037F0003BB1074B4FF45052C3F80823C3F8000203
:103800001961704700F0014000900040DC0F00207B
:1038100000100040134908B54023C1F80835802343
:10382000C1F80835FFF712FFD1F8003823F0800304
:10383000C1F8003800220C4BC1F82C291B787BB151
:103840000A4B0A21C3F808130121C3F800221961A9
:10385000C3F84426BDE808404FF4AE70FFF789BEB8
:1038600008BD00BF00F00140DC0F00200010004048
:10387000104908B54023C1F808358023C1F8083540
:10388000FFF7E4FED1F8003823F08003C1F80038D8
:103890000022094BC1F82C291B784BB1074B4FF480
:1038A0000041C3F80813C3F8002201229A621A618A
:1038B00008BD00BF00F00140DC0F002000100040F8
:1038C000104908B54023C1F808358023C1F80835F0
:1038D000FFF7BCFED1F8003823F08003C1F80038B0
:1038E0000022094BC1F82C291B784BB1074B4FF430
:1038F000C021C3F80813C3F8002201221A631A6119
:1039000008BD00BF00F00140DC0F002000100040A7
:1039100008B50E4B01211961D3F8002222F4407240
:10392000C3F800220A4A1278043A8A4206D9094B9F
:10393000094A0A4840F29E3103F040FC196120B167
:10394000074B4FF48072C3F8082508BD0090004073
:10395000DE0F0020ADEB0000C4FB00001AEC0000FD
:1039600000F0014010B5104C4023C4F80835802306
:10397000C4F808350120FFF7CBFFD4F8003823F056
:103980008003C4F800380022084BC4F82C291B78A7
:1039900043B1074B0749C3F80813C3F800220122BB
:1039A0001A631A6110BD00BF00F00140DC0F002057
:1039B0000010004002000408F8B504460F46164601
:1039C00001F05CF9054680B14C4B1B78092B00F2E5
:1039D0008C80DFE803F0050C0F2054545E636C7597
:1039E000022F02D0042002F043FC2846F8BDFFF766
:1039F0003FFEFAE7424B1B785B0709D5002C7BD0D2
:103A0000FFF7D6FE002EF0D0062002F0F0FDECE726
:103A1000FFF7CEFEE9E7002C6ED03A4B4022C3F808
:103A200008258022C3F808254FF48072C3F80825C2
:103A3000354A01211161D3F8000820F08000C3F855
:103A400000080020C3F82C091161D2F8003223F4D9
:103A50008073C2F800322D4B1B7833B12C4B2D4AAA
:103A6000C3F80823C3F800021961002EBDD02A4B09
:103A70001868002380F88030FFF75AFEB5E7002C65
:103A80003AD0FFF76FFF002EAFD00620FFF768FE99
:103A9000ABE7002C30D0FFF7BDFEF4E764B3FFF7CF
:103AA000E7FE002EA1D0012002F0A9FD9DE71CB386
:103AB000FFF706FF002E98D0012002F0A4FD94E746
:103AC000104B11494022C3F808258022C3F808256D
:103AD00001220A614FF48071C3F808150B4B1B7863
:103AE000002B82D00A4B1A617FE70C4B0C4A0D4821
:103AF00040F2BC5103F062FB254676E7DE0F002062
:103B0000DD0F002000F0014000900040DC0F00209D
:103B10000010004002000008EC0F0020ADEB000098
:103B2000D5FB00001AEC0000054B002282B0C3F860
:103B30003C21D3F83C310193019B02B0704700BF98
:103B400000700140F8B52B4B1B7807460D46164612
:103B500013B900242046F8BD047801F042FE630149
:103B600000283BD103F1EE000DB1A83080B202F085
:103B70003BFB04460028ECD001F054FA1E4B1F4AD0
:103B8000C3F80C05002D08BF4FF4A012C3F804754C
:103B90004FF4B670C3F80022FFF7EBFC0DB34FF4FF
:103BA000A470FFF7E6FC164A1649134F4FF48270D3
:103BB000FFF7DFFC0B7842F0020223F00803AD00B0
:103BC0000B7005F0FC00C7F804230121FFF7ACFFE0
:103BD000FFF70EFD46B901233B61BBE703F24E4000
:103BE000C2E74FF00062DFE7FFF7ECFC0028F2D0FD
:103BF000B0E700BFDC0F00200010004000381400C8
:103C000000000408DD0F002038B5144B1B78054672
:103C1000EBB1AE2002F0E8FAC8B1114C4FF42053DA
:103C2000C4F800324FF4A470FFF7A3FC4FF4A27065
:103C3000FFF79FFC4FF4C023C4F804330121042094
:103C4000FFF772FFFFF7D4FC15B90123236138BDDC
:103C5000FFF7B8FC0028F8D0F9E700BFDC0F002020
:103C600000100040144938B54023C1F8083518B198
:103C7000124B5222C3F80022114B124A0F4C01255D
:103C80001D618023C1F8043513784FF4947023F03C
:103C900007031370FFF76DFC1823C4F86035FFF7B6
:103CA00043FF40230848C1F8043501F0A3FAFFF7A9
:103CB00089FC00B9256138BD00F0014000100040CA
:103CC00000900040DD0F00203011004038B5044660
:103CD00001F0A8F9084D0021C5F80C050846FFF7CA
:103CE00023FFFFF785FC14B901232B6138BDFFF7D3
:103CF00069FC0028F8D0F9E70010004038B5114BF6
:103D00001B780546C3B1104B1868FFF7BDFC98B18E
:103D10000E4C4FF40042C4F800224FF49E70FFF79F
:103D200028FC0121C4F804230420FFF7FDFEFFF75F
:103D30005FFC15B90123236138BDFFF743FC002860
:103D4000F8D0F9E7DC0F0020E00F00200010004061
:103D50000B3808B5C3B20F2B06D9094B094A0A48DC
:103D600040F2052103F02AFA00EB800000F665100E
:103D7000064B80B2A0F51660C3F8080508BD00BF69
:103D800086EC000002FC00001AEC0000001000406D
:103D9000084B0222C3F88020BFF34F8FBFF36F8F11
:103DA000C3F88021002283F80123BFF34F8FBFF3B4
:103DB0006F8F704700E100E008B5064B1B7833B108
:103DC00002F03CFA3B2894BF0020012008BD0120EE
:103DD000FCE700BFDC0F002008B501F0B7F820B108
:103DE000FFF7EAFF10B901F051F8002008BD00000C
:103DF00038B5464B1B780546002B7FD0444A1378D4
:103E000023F01703137001F00DF9424AC2F80C05B4
:103E1000FFF7BCFB0446002871D0FFF7C1FB3E4B07
:103E2000C2F80405C2F800321823C2F860354FF416
:103E30009A70FFF79EFB4FF49470FFF79AFB4FF4D4
:103E40009870FFF796FB354935484FF45053C2F848
:103E50000433D1F8003243F48073C1F800320123F7
:103E6000C1F840358223C1F84435FFF75DFE2D4B84
:103E70002D4AC3F84825C3F84C0500F5F030C3F8C7
:103E80002C09C3F85025C3F85415D3F8002842F084
:103E90008002C3F80028254AC3F8402502F5AF3256
:103EA00002F59672C3F844258022C3F804254FF426
:103EB0008072C3F80425A0F5EF304022C3F8042532
:103EC000D43801F097F9E5B9124B01221A61ACB967
:103ED00001F044F9164B1860FFF758FB70B1FFF77B
:103EE0005FFB0C4B0C4AC3F80405C3F80022D3F85F
:103EF0005025D2B2022A04BF01229A6038BD522353
:103F000090E7FFF75FFB0028DED0E0E7DC0F002042
:103F1000DD0F00200010004052000800009000401B
:103F20000410004000F001403C71014010110040BD
:103F3000EC0F00202DE9FF410446002800F0AF807F
:103F400002F07CF93B2840F2FB807F4E337803F08F
:103F5000FF07002B40F0F4807C4C01250F233946ED
:103F6000C4F8FC7F0D22C4F8FC5F6846C4F8103525
:103F700003F0D2F808238DF800307F238DF8083045
:103F80009DF807309DF801208DF806505B0743EA45
:103F900002239DF8022043EA02439DF8032043EAEE
:103FA00002539DF8042043EA825343F0C0634FF06C
:103FB000020843F008038DF80580C4F814359DF815
:103FC00009309DF80C201B0243EA42639DF80A2049
:103FD00043EA02439DF80B2043EA026343F07F0368
:103FE000C4F8183540F20223C4F85056C4F83435EA
:103FF000574BC4F83835FFF769FB564BC4F8447685
:10400000C4F8483601F000F8FFF7A2FE524B83F8DF
:104010000173C3F88081D4F8003233B14F4B504A5A
:1040200040F22C714F4803F0C9F8357001F0CCF81C
:104030004D4B1B78092B2DD8DFE803F0822C052C83
:104040000B142C171D23002004B0BDE8F041FFF72E
:10405000CFBE00220121454B186804B0BDE8F041F5
:10406000FFF770BD00221146F5E7002004B0BDE85F
:10407000F041FFF743BE002004B0BDE8F041FFF778
:10408000C3BD3378002B5BD0002004B0BDE8F04105
:10409000FFF71CBE364B324A40F25371C2E72A4B3F
:1040A0001A783AB3187002F0A1F838B1FFF770FE31
:1040B000264B0122C3F8FC4FC3F8FC2F01F092F805
:1040C000002202210120FFF777FC20B9294B2A4A60
:1040D00040F27171A6E7244B1A78092A2BD8DFE841
:1040E00002F009050E1620202009090900221A7085
:1040F000FFF708FB04B0BDE8F04102F073B81F4BB6
:104100001B785B07F6D50520FFF73CFBF2E70222A0
:104110001A701B4B1868002380F88030FFF73DFBB6
:10412000E8E702221A7000F013FF0420FFF718FBE3
:1041300000F03EFEDEE70E4B0F4A4FF4F36171E7ED
:1041400004B0BDE8F08100BFDC0F0020001000408B
:1041500021100100000700FF00E100E0A5EC0000D5
:104160000EFC00001AEC0000DE0F0020E40F00201F
:10417000ADEB000043ED0000F1FB0000DD0F00207F
:10418000EC0F00200D4A002313700D4A13700D4BE5
:10419000D3F8042522F00302C3F80425D3F8082538
:1041A00042F00302C3F80825D3F8102522F00F02CD
:1041B00042F00402C3F8102501F0B8BDDE0F002064
:1041C000DC0F0020009000402DE9F84307468846A8
:1041D0001546994600F0BAFE0446F8B1114E337800
:1041E000022B06D03378032B03D0FFF7E5FD40B94F
:1041F00000240DB12046A84700F048FE2046BDE847
:10420000F8834A4641463846FFF7D6FB0028EFD0F0
:10421000022301203370FFF7EBFDEAE7002DEDD01C
:10422000A847EBE7DE0F00202DE9F047099E9DF837
:10423000209080468A4617461D46FFF7CDFD04466E
:1042400030B3012251464046FFF7B6FB044640B961
:1042500000240EB12046B04700F018FE2046BDE80D
:10426000F087DFF83880022388F800300A4B0122FB
:10427000294638461F60FFF765FCB9F1000F01D0F1
:104280000028E5D0C5F10505EDB288F80050E0E75B
:10429000002EE3D0B047E1E7E40F0020DE0F00205E
:1042A00010B50446FFF798FD012184F8801058B13D
:1042B000204B1B7833B1204B1B78022BDAB205D090
:1042C000062A1FD000F0E2FD012010BD1B4AD2F8E3
:1042D0005035DBB2022BF5D1D2F80032522B06D08A
:1042E000174B184A40F62E41174802F067FF174B4C
:1042F0001C60FFF755F9164BC2F80405C2F80032EE
:104300009160DFE70D4AD2F85035DBB2022BD9D1EC
:10431000D2F80032122B04D00E4B0A4A40F63D412F
:10432000E2E70A4B1C60FFF73BF90B4BC2F80405B0
:10433000E4E700BFDC0F0020DE0F0020001000408B
:10434000CBEC0000A1FB00001AEC0000EC0F0020F9
:1043500052000800EFEC00001200080038B5FFF72B
:104360003BFD044678B1124D2B781BB100F04CFE9A
:10437000FFF7EEFC0F4B1B78022BDAB205D0092AAF
:104380000ED000F083FD204638BD012211460020EA
:10439000FFF712FB0028F4D00120FFF729FDF0E71A
:1043A0002B78002BEDD0044B01221A61E9E700BF06
:1043B000DC0F0020DE0F0020001000402DE9F04F40
:1043C0008DB000F0E3FCAA4BD3F80423950728D561
:1043D000D3F804312BB34FF48270FFF7CAF8A54B22
:1043E0001A78052AD3B209D8032B0CD838D0A24B9F
:1043F000A24A40F68521A24802F0E0FE062BF6D143
:1044000000F07AFC0DE09F4B1C68204600F060FC39
:1044100010B12046FBF770FF9B4A137843F0080366
:104420001370934ED6F804335C055CD5D6F828316A
:10443000002B58D04FF49470FFF79BF88D4B1B78EE
:10444000022B40F00B81D6F86075C7F3C707022F27
:104450008DF8187009D88D4B8D4A4FF4FA61CAE770
:104460008C4B1868FFF770F8DBE7D6F83431002B77
:1044700039D1854C237813F0010815D1DFF8189253
:1044800043F00403D9F80000237006A901F08CF86A
:104490000546002840F0C0809DF818309F4200F08B
:1044A000B680DB00C6F860354FF001082378980726
:1044B00019D4B8F1000F16D0774E3068057801F0A6
:1044C00090F96B01002840F0C08003F1C00001F0BA
:1044D0008BFE002800F0BC802378306843F0020394
:1044E000237000F007FC624BD3F80423910412D52B
:1044F000D3F834317BB14FF49A70FFF73AF85D4B43
:104500001B78022BDCB240F0AE800020FFF7AAFB44
:104510002046FFF737F9564BD3F80423D20440F175
:104520000081D3F83031002B00F0FB80514E4FF466
:104530009870FFF71EF83378022B40F09D81524FA0
:10454000554C3B78256843F010033B70DB0740F186
:10455000A980206801F045F9002800F0AC8000F047
:1045600043FD002800F0A780206801F0E7FB494BDD
:104570001860002800F09F803D4A4849C2F80405B1
:104580004FF4A013C2F800324FF4AA70FEF7F1FF07
:10459000434BC3F858154FF40071C3F85C25C3F8BA
:1045A0000415A3F5B0330121D3F84405D964D3F839
:1045B0004C15D3F84035884205D9984240F29F8087
:1045C000994200F29C80FEF7F5FFD2F85035DBB23D
:1045D000092B00F09480D2F85431002B40F08F80EA
:1045E000226882F880302E4A4FF40071C2F8081514
:1045F000C2F85835C2F85C35C2F83439FFF7D8F83C
:104600000120FFF7F5FB2846FFF7C7F889E023787C
:1046100043F00103237047E7092810D1FFF7C8F8DA
:104620000120FFF7E5FBD9F800305B7803F00703C2
:10463000022B3FF43BAF2846FFF7A4F836E700F023
:10464000CBFC00287FF430AFE8E703F538703EE795
:10465000FFF7AEF8052001F0CAFF44E7064B074A12
:1046600040F69A21C7E6044B044A4FF42B61C2E698
:1046700000100040DE0F0020ADEB000095FB0000B5
:104680001AEC0000E40F0020DD0F002017ED000001
:1046900080FB0000E80F0020EC0F00204491004058
:1046A00000F0014000F098FC002800F0DC803B782E
:1046B000DF073FF54EAF0120FFF7D4FA6B7803F028
:1046C0000703022B00F0BD802368002283F88020BE
:1046D00000F044FD2060FEF759FF002893D0FEF75C
:1046E0005FFFBA4BBA4AC3F80405C3F80022D3F8F7
:1046F0005025D2B2022A04BF01229A6083E7B34A4E
:10470000032333704FF45053C2F808334FF4B6709C
:10471000FEF72FFF4FF48270FEF72BFFAD4BC2F870
:104720000433AA4CD4F804331D0140F11081D4F8AD
:104730006C31002B00F00B81A74EA84F4FF4B670E0
:10474000FEF717FF3278032AD3B200F09A80043BB9
:10475000012B00F273813B78180740F1F880A04FDD
:10476000386801F03EF80546002800F05181FEF758
:104770000DFF9C4A9C4B051E08BF12234FF04001C1
:10478000C2F80815C4F8003203D0FEF709FFC4F8D8
:1047900004054FF48670FEF7ECFE944BC4F8083322
:1047A0004FF48270FEF7E5FE0A23C4F804330020BC
:1047B000FFF7AEF88B498E4BC1F84835A3F5B033FF
:1047C000A3F59C73C1F84C3503F5F033C1F82C39CF
:1047D000FFF7AAF98023C1F804354023C1F8043556
:1047E00006233370FEF7EEFE08B901232361ADB94D
:1047F00000F0B4FC7F4B1860FEF7C8FE70B1FEF706
:10480000CFFE724B784AC3F80405C3F80022D3F8F0
:104810005025D2B2022A04BF01229A603A689378E6
:1048200003F03003202B00F092804FF4AE70FEF7BF
:10483000A0FED378654A1B0643F40073C2F84436E1
:1048400085E000F0C9FB00287FF43EAF5F4B604A73
:10485000C3F80022D3F85025D2B2022A7FF461AF08
:1048600001229A605DE7FEF7A3FF0120FFF7C0FA7F
:104870000420FEF787FF54E75F4B604A40F6C421EF
:10488000B9E558495E4ADFF86C914FF0400B4FF0A4
:10489000010A5223D9F80080C1F808B5C2F810A067
:1048A000C4F800321823C4F860354A4BC4F8083302
:1048B0004FF49A70FEF75DFE4FF49470FEF759FEC8
:1048C0004FF49870FEF755FE4FF45053C4F804337C
:1048D0004FF40073C2F810A00025C1F808358023FA
:1048E000C1F85855C1F85C55C1F83459C1F80435C0
:1048F000FFF71AF94348C1F804B500F07BFCFEF756
:1049000061FE08B9C4F810A0D9F8003083F88050CF
:1049100000F024FCC9F80000FEF738FE70B1FEF785
:104920003FFE2A4B2A4AC3F80405C3F80022D3F8F5
:104930005025D2B2022A04BF01229A6002233370AA
:104940003B78404623F007033B70FEF726FF1F4AE3
:10495000D2F80433190740F1B280D2F80C31002BA1
:1049600000F0AD801C4E4FF48670FEF702FE3378E7
:10497000062B40F0FF801F4DD2F85C312C6823B12C
:10498000D2F80034DB0700F1E980154B1868837812
:1049900003F03003202B69D1A37803F03003202BE0
:1049A00064D1637803F00703022B5FD1074BD3F880
:1049B0000034DF075AD5694600F0ADFF002842D128
:1049C000114B124A4FF4206115E500BF0010004062
:1049D0005200080002000008DE0F0020DD0F00205A
:1049E000E40F002000F0014012000800020004085B
:1049F0003C710140EC0F0020ADEB000095FB000086
:104A000000900040301100403DED00006BFB0000C5
:104A1000FEF7A8FF022301203370FFF7E9F93C6895
:104A200000F096FA204600F03DF92B462A4629462A
:104A3000204601F0DEFD00F0BBF988E7884B894A8B
:104A400040F6DC21D7E406A9204600F064FF68B1F7
:104A5000039858B1079949B19DF815309DF82C205D
:104A60009A4203D102F082FC002877D00024254628
:104A7000FEF7D0FE022701203770FFF7B9F9002CAE
:104A800072D0FEF747FE2B782B44064613F8010C34
:104A900000F040FB744B1F68044600F059FA38469A
:104AA00000F000F923B29B00FF2B28BFFF23DBB2ED
:104AB00032462946384601F09CFD00F079F96B4BEF
:104AC000D3F80423D00610D5D3F810316BB1684960
:104AD0004FF48870FEF74DFD0B78012B4FD1FEF798
:104AE000C7FD00230B70FEF70DFE604BD3F80423C7
:104AF000910318D5D3F84431ABB14FF4A270FEF74F
:104B000038FD5B480378082B3ED1FEF7D9FE02231F
:104B100003700120FFF76CF900F01AFA012001F090
:104B200070FD00F045F9514BD3F8042352034BD5E7
:104B3000D3F84831002B47D04D4C4FF4A470FEF70A
:104B400018FD2278052AD3B24FF0020521D8032B95
:104B50002DD8434B434A40F62D314CE42D680023B9
:104B600085F88030012483E700F0F2F93846FEF73B
:104B7000F7FDA2E73A4B3B4A40F6EF213BE4384BC6
:104B8000384A40F6023136E4354B364A40F61531A4
:104B900031E4082BDDD10120FEF792FE2570FFF7EE
:104BA00027F900F0D5F9002001F02BFD0AE0FEF70F
:104BB000D9FE01202570FFF71BF900F0C9F901208B
:104BC000FEF7CEFD00F0F4F8284CD4F804331B04B3
:104BD0001BD5D4F83C31C3B1254E4FF49E70FEF77F
:104BE000C8FC3378072B34D1224DD4F868362A78A4
:104BF000DBB2934238BF13462B701F4B186860B16D
:104C0000FEF742FD30B1012363620DB0BDE8F04F05
:104C100000F03CB9FEF71AFDF7E700F0F5F9FFF7F1
:104C200097F8FEF725FE012002233370FFF7E0F826
:104C3000287800F076FA044600F08AF920B2800065
:104C4000FF2828BFFF20C0B201F0D7FC00F0B0F869
:104C5000DBE7034B034A4FF43461FFF7CCBB00BFE3
:104C6000ADEB000095FB0000E40F002000100040B9
:104C7000DE0F0020DF0F0020E00F0020F8B5084F06
:104C800005460E46002457F8043B33B1314628460A
:104C9000984718B10134042CF5D10120F8BD00BFAC
:104CA0003CFC000000F004BFF8B5084F05460E4676
:104CB000002457F8043B33B131462846984718B1D1
:104CC0000134032CF5D10120F8BD00BF30FC0000F9
:104CD00070B5074E0546002456F8043B2BB1284614
:104CE000984718B10134032CF6D1012070BD00BFE4
:104CF00024FC000000F042BC00F0F6BE08B5174AE4
:104D0000D2E84F3FDBB2FF2B05D1154B154A1648B1
:104D10007B2102F053FA0133DBB2C2E8413F0029A4
:104D2000EED101F0C9FA01F0F3FE0121084601F0CD
:104D30006BFA38B10D4B0222C3F88020BFF34F8FBE
:104D4000BFF36F8FBFF34F8FBFF36F8F084A137896
:104D50000133DBB21370012008BD00BFF20F002049
:104D60004AED000019FD00005AED000000E100E0EE
:104D7000F30F0020034B00221A70034BFF221A701E
:104D8000704700BFF20F0020F10F002008B5FFF7B9
:104D9000B5FF28B9034B044A0448E52102F00EFA96
:104DA00008BD00BFD2ED0000ECFC00005AED000091
:104DB00008B50B4B1A78120606D50A4B0A4A4FF46F
:104DC00080710A4802F0FAF9094A127822B9094BAF
:104DD000054A40F20111F4E7FF221A7008BD00BF36
:104DE000F10F0020EBED000083FC00005AED000005
:104DF000F20F00201BEE000008B513494A68C2F309
:104E00000803EBB112F4F87F06D1104B104A114899
:104E100040F2171102F0D2F9DBB2A3F11000C2B2D6
:104E200000064BBF03F00F0302F16043043B03F5A0
:104E300061434ABFC91893F80003087E400908BDC2
:104E40004FF0FF30FBE700BF00ED00E042EE000056
:104E50004CFC00005AED000008B50A4B1B781BB94A
:104E6000BDE80840FFF74ABFFFF7C6FF431C064BEB
:104E70001B7808BF7F205BB240B29842F0D0002080
:104E800008BD00BFF20F0020F10F00202DE9F04116
:104E9000244D2B7803F0FF046BB1DFF8AC80224E79
:104EA00098F80070012CFFB21AD133784BB11F4B28
:104EB0001F4A9E2102E01F4B1D4A95211E4802F009
:104EC0007DF9347001F0FAF92146204601F09CF991
:104ED00010B11A4B02221A6001F02EFE002333702B
:104EE000631EDBB2D5E84F2FD2B2944203D0144BED
:104EF0000F4AAC21E2E7C5E8423F002AF2D1012C7B
:104F00000ED101F0EBF918B998F800309F4207D0A4
:104F1000FFF7A2FF0028C3D10A4B054AB921CDE70C
:104F2000BDE8F081F20F0020F00F00207CEE0000C1
:104F3000D6FC000074EE00005AED000000E100E035
:104F40008FEE000043ED0000F30F0020FFF784BF59
:104F500010B50C4C2378FF2B05D00B4B0B4AF621D8
:104F60000B4802F02BF90B4B1B781BB90A4B074A75
:104F7000F821F5E7FFF740FF431C08BF7F2040B250
:104F8000207010BDF10F0020A1EE0000ACFC00006D
:104F90005AED0000F20F00201BEE000070470000E9
:104FA00010B50C4C5A230222FF21601C637402F0DE
:104FB000B3F8FE23E3700822FF230021601D237154
:104FC00002F0AAF8002363731423A373E37302238C
:104FD000237410BDF40F0020024B587C00F0010038
:104FE000704700BFF40F0020024B587CC0F3400014
:104FF000704700BFF40F0020024B587CC0F38000C4
:10500000704700BFF40F0020014B587CC008704768
:10501000F40F0020024B5A7C60F3C7025A747047A9
:10502000F40F0020F0B5144B587C93F9001085B0B4
:10503000C00800F0AFF9114B6A46044603F10807B7
:10504000154618685968164603C60833BB423246EF
:10505000F7D118689B883060072CB38009DC2B4699
:10506000002213F8010B41B28C4203DD01320E2AFB
:10507000F7D1082005B0F0BDF40F002030FD00008E
:1050800000487047F50F002001460222014802F057
:105090009BB900BFF50F002000487047F90F0020B2
:1050A00001460822014802F08FB900BFF90F002025
:1050B00000487047F70F00200149042202F084B92C
:1050C0000110002008B501F072FE10F11D0F0FDB7A
:1050D00010F1090F0EDB0A280EDD1E280EDD322826
:1050E0000EDD4628CCBF6FF002006FF0010008BD56
:1050F0000320FCE70220FAE70120F8E70020F6E7AA
:105100004FF0FF30F3E710B50446FFF7DBFF204414
:10511000C0B210BD10B50446FFF7D4FF201AC0B2CC
:1051200010BD10B50446FFF7CDFF201AC0B210BD68
:1051300010B50446FFF7C6FF201AC0B210BD00002C
:10514000054A002301210133102B82F8801002F15F
:105150008102F8D1704700BF06100020074A0023E3
:10516000114692F8800018B103EBC313C8187047BA
:105170000133102B02F18102F3D170470610002099
:105180000E4A002310B513600D4A137001F0F7FAB0
:1051900001F096FD044601F013FB0A4B4FF4005258
:1051A000C3F87845C3F87C05C3F80425D3F8042870
:1051B00042F48042C3F8042810BD00BF1818002034
:1051C0001C18002000F0014008B5054B00221A70A1
:1051D00001F0D6FA01F0F8FABDE8084001F01CBD74
:1051E0001D18002008B501F0E5FABDE8084001F0FF
:1051F00059BD000010B5044601F014FB054B064AEA
:10520000C3F88045C3F88405C3F8482901229A6091
:1052100010BD00BF00F001400CF001402DE9F0414D
:10522000064628B9254B264A2648992101F0C6FF93
:10523000254B1B7803F0FF088BB3244F01F0F6FADF
:105240007B68C51A224B187828B3224B1968CB17F4
:1052500011F58002A5FB01EC05FB03CC43F1000333
:1052600011F5800FACBF00210121B1EBDC7F4FEACB
:10527000D37417D0A41843F10001640844EAC17440
:1052800064424FEA610161EB410114EB0E004CEB0B
:10529000010108F067FA3B681D442D1A356040464D
:1052A000BDE8F081A41843F10001640844EAC17428
:1052B00014EB0E004CEB6101EBE700BFFDEE0000CC
:1052C0003EFD000011EF00001D18002020180020F6
:1052D0001C18002018180020F7B501A801F084FA66
:1052E00000284AD0274E284C284D01F0EDFC337899
:1052F000009023B32268019FC2F500113A44676809
:10530000D21B0144101A90EA91522A784FEA915325
:105310004FEAD1514BBF401A091890FBF3F391FBB0
:10532000F3F31B4942B10A68C2EBC202D31821D57C
:105330001A1F48BFDA1CD3100B6001232B70002307
:105340003370BFF35F8F02AB13E9030084E80300FF
:10535000BFF35F8F0123337001F036FA2B7820689A
:10536000002B0CBF4FF480014FF0807101F084FCE2
:1053700003B0F0BD0433DB10DEE701F025FA01F0E5
:105380004BFCF5E71D180020201800201C180020F9
:10539000181800200846704770B501F005FD0C4B49
:1053A0000C4D1B7801249C4000260B4BAB60013C4C
:1053B0000440EE6001F064F8E4B24FF4A0735C4383
:1053C00028606C6031462846BDE8704001F064B842
:1053D000441800202C1800201D54000010B50C4962
:1053E0000B789BB10B4A0C4813780133DBB2137076
:1053F0000278042A9CBF01320270032B4FF0000494
:1054000003D8FFF7C9FF204610BD0C700120FBE751
:1054100028180020451800204418002007B50B4B21
:105420001B787BB10A4B0B4A019300200090126855
:105430000123032101F0F0F820B903B05DF804EB7B
:10544000FFF7CCBF03B05DF804FB00BF28180020B5
:10545000595400004018002040B9054B1B78022B1E
:1054600004D9044B0121186801F0C5B8704700BF8A
:105470004518002040180020012910B507D8074C16
:1054800038B10748002101F06BF800232370012098
:1054900002E0207880F0010010BD00BF2818002035
:1054A0002C180020034B1B68834201D1FFF796BFE5
:1054B000012070474018002008B5094B1B68834243
:1054C0000BD1084801F056F828B1074B074A0848A5
:1054D000F92101F073FE074B1870012008BD00BFD1
:1054E000401800202C18002018F0000063FD000078
:1054F0009CEF00002818002013B50C4A531CD3E879
:105500004F3FDBB28DF807309DF80730834204D05F
:10551000BFF32F8F002002B010BD541CC4E8431FFE
:10552000002BEBD1BFF35F8F0120F4E75018002070
:10553000052910B5034615D00C4C6278022AD0B26A
:1055400010D18BB10021FFF7D7FF10B10A2001F075
:105550004EF8637833B1064B064A07484FF40271A0
:1055600001F02CFE012010BD1846FCE75018002069
:1055700031F1000086FD000073F0000038B5084BE3
:105580005B78022B044609D100F07AFF054D2378A1
:10559000286020462B7100F024F9687138BD00BFE7
:1055A0005018002048180020F0B50D4641782C789E
:1055B0008378032C89B0064601F0070734D10278BE
:1055C000053A7A2A00F28780052F03F030020AD0CC
:1055D00020D8042F01D0302A01D101246BE0102AF9
:1055E00003D0202A18D0002AF7D103F00C03082B8F
:1055F0000FD00C2B0CD0002BEFD1FFF7FDFC08B91E
:10560000002F58D196F90230002BE6DA062300E08D
:105610000E232B7000244EE04B07DED400F002F97D
:10562000FF28DAD02870F5E702A900F074F9002805
:10563000D3D0029CDCB1FFF723FD022201462046B5
:1056400001F094FE98B1254B02221D88ADF804505C
:1056500001A9204601F08AFE48B15FBBFFF710FDAB
:1056600002226946ADF8005001F080FE10BB9DF8A3
:105670001C40022C09D0082C20D02CB3184B194AFE
:1056800019484FF4D97101F099FD039DFFF710FD02
:1056900022460146284601F069FE0028BAD00F4B89
:1056A0001B88ADF80430224601A9284601F05EFEB1
:1056B0000028AFD00324204609B0F0BD039DFFF7BA
:1056C000EBFC22460146F0E7FFF796FC0028A1D14B
:1056D000002F9FD0EEE70924EDE700BFB2FD0000E8
:1056E000ADEB0000A3FD00006FF10000807800F03A
:1056F00030031F2B83BF00F00100C0F10400C0B2D3
:1057000004207047807800F0C000802807D0C028AF
:1057100007D0003818BF01204042C0B270470220B5
:1057200070470820704700008378024A03F00C039A
:10573000D05C7047B4FD00008378990603F00C023A
:1057400003D4101E18BF0120704740780C2A00F0C7
:10575000400007D103F0C001C02909D1B0FA80F0A0
:10576000400970473F2BECD8002AF7D10038E9E711
:105770003F2BE6D8F2E78378427813F0200002F05E
:10578000400205D13F2B14D9B2FA82F0400970478C
:1057900003F00C010C2905D103F0C001C02909D187
:1057A000002006E03F2BFBD9B2FA82F04009002925
:1057B000EAD170473F2BE7D8F2E7807800F0C000CD
:1057C000A0F1C003584258417047807800F0C000F3
:1057D000A0F18003584258417047807800F00100E2
:1057E00070474078C0F34010704710B50446FFF78B
:1057F000A3FF20B12046BDE81040FFF777BF10BDE2
:1058000010B5837813F00C03044609D0FFF7EDFFC1
:1058100020B92046BDE81040FFF768BF0230C3B290
:10582000184610BD38B50146FFF760FF054608462B
:10583000FFF77AFFFF28044607D00846FFF77CFFF2
:1058400008B10235EDB22C44E4B2204638BD38B57B
:105850000546FFF7CAFF04462846FFF78CFFB0B1A4
:105860002846FFF7CDFF014648B12846FFF75CFF09
:10587000FF28044601D00C44E4B2204638BD0CB1E8
:105880000234F9E72846BDE83840FFF72FBF284625
:10589000FFF752FF002808BF0024EEE710B5837819
:1058A0003F2B04461FD9FFF766FF30B12046FFF7B4
:1058B000CEFFFF280DD002300AE02046FFF7A0FF00
:1058C0000146204631B1FFF72FFFFF2801D00844E1
:1058D000C0B210BDFFF789FF0028ECD12046BDE81B
:1058E0001040FFF703BF0020F3E738B504460D462C
:1058F000FFF7D4FF431EDBB2FD2B09D8A37803F0DA
:10590000C003A3F1C0025342534120442B7038BD61
:1059100000231846FAE72DE9F0410546FFF7E6FEB9
:10592000044628460E46FFF707FF07462846FFF7BE
:1059300022FF8046A7B129190234E4B23160AB7866
:1059400013F00C030ED02B1973602846FFF7ECFE02
:105950000444FF283075E4B206D10020BDE8F08190
:105960003946EBE773603375B8F1000F19D0291988
:105970000234E4B2B160AB783F2B16D92B19F36037
:105980002846FFF7BFFE0444FF287075E4B2E4D058
:10599000B4756B7813F008030BD0254435610120F2
:1059A000DCE7002F08BF0021E4E70023F3607375F4
:1059B000EEE73361F3E70000034B00211970BFF3FA
:1059C0005F8F024800F0CCBD581800205C18002002
:1059D00020B1034B0521186800F00DBE704700BFD1
:1059E0005418002010B5104C237843B10F4A0023FF
:1059F0000421012000F00EFE10B10023237010BD21
:105A00000B480C4A436803F5FA739342436005D987
:105A1000094B0A4A0A485E2101F0D0FBBDE810405C
:105A2000012100F039BD00BF58180020D1590000F5
:105A30005C18002040420F00EAF100003AFE00002E
:105A400008F2000038B50E4C0E4D0F4BA36000233A
:105A5000E360286000F014FD2B6820601A780B4B7F
:105A60001B6803EB421303F5C07301256360084B09
:105A7000204629461D7000F00FFD284638BD00BFA6
:105A80005C18002054180020E55900001C0000207C
:105A90005818002008B5054B1B7823B1042902D003
:105AA00010B1FFF789FF012008BD00BF5818002082
:105AB00008B5084B1B68834208D0074B1B782BB1F5
:105AC000064B074A0748A32101F078FBBDE80840D0
:105AD000FFF772BF541800205818002090F2000001
