:1000000000000220D18A0000F98A00005118000087
:10001000FD8A0000FF8A0000018B00000000000044
:10002000000000000000000000000000038B000042
:10003000058B000000000000078B0000098B00000A
:100040007B820000DD5E000081330000F13B000098
:10005000013C00000B8B0000E5310000D5340000AE
:10006000ED390000FD3900000B8B00000B8B000008
:100070000B8B00000B8B00000B8B00000B8B000028
:100080000B8B0000851400000B8B00000B8B000015
:10009000211500000B8B00000B8B00000B8B000068
:1000A0000B8B00000B8B00000B8B00000B8B0000F8
:1000B0009D3400000B8B00000000000000000000D9
:1000C0000B8B0000AD3400000B8B00003D390000AD
:1000D000218800000B8B00000B8B00000B8B0000B5
:1000E000294A00000000000000000000000000009D
:1000F000000000000B8B0000000000000B8B0000D4
:1001000000000000000000000000000000000000EF
:1001100000000000000000000000000000000000DF
:1001200000000000000000000000000000000000CF
:1001300000000000000000000000000000000000BF
:1001400000000000000000000000000000000000AF
:10015000000000000000000000000000000000009F
:10016000000000000000000000000000000000008F
:10017000000000000000000000000000000000007F
:10018000000000000000000000000000000000006F
:10019000000000000000000000000000000000005F
:1001A000000000000000000000000000000000004F
:1001B000000000000000000000000000000000003F
:1001C000000000000000000000000000000000002F
:1001D000000000000000000000000000000000001F
:1001E000000000000000000000000000000000000F
:1001F00000000000000000000000000000000000FF
:100200000348044B834202D0034B03B118477047A5
:100210003C0700203C070020000000000548064B7A
:100220001B1AD90F01EBA301491002D0034B03B1F4
:10023000184770473C0700203C07002000000000E2
:1002400010B5064C237843B9FFF7DAFF044B13B11E
:100250000448AFF300800123237010BD4007002045
:1002600000000000A825010008B5044B1BB104499B
:100270000448AFF30080BDE80840CFE7000000006D
:1002800044070020A8250100A3F5803A704700BF6D
:10029000154B002B08BF114B9D46FFF7F5FF0021C2
:1002A0008B460F461148124A121A08F0D5FC0C4B27
:1002B000002B00D098470B4B002B00D09847002014
:1002C000002104000D000B4809F07CF909F032F818
:1002D0002000290000F080FA09F066F9000008000B
:1002E0000000000000000000000002204007002085
:1002F000BC1E00209998000010B50368292B044605
:1003000004D9074940F2CD1001F0BCFA23681F2B35
:1003100083BF03F01F03236002484FF0A04010BDCD
:100320001CF900000003005007B5019001A8FFF779
:10033000E3FF019BD0F81005D84000F0010003B0A6
:100340005DF804FB37B51023037040F60C234160C1
:10035000044603810A2301A80193FFF7CDFF019B07
:1003600003F5E073032240F8232001A8237A0193C8
:10037000FFF7C2FF019B03F5E073002540F823500F
:1003800040F21113638101A811230193FFF7B4FF19
:10039000019B03F5E07340F8235001A8E37A019331
:1003A000FFF7AAFF019B03F5E07340F8235003B069
:1003B00030BD000064292DE9F0416FF063030E4663
:1003C000A8BF64269E42B8BF1E46642A1546A8BF31
:1003D00064259D42B8BF1D4688B088461746314601
:1003E0002A460446244809F003F9B8F1000FD4BFA7
:1003F0004FF001084FF002083046002FD4BF01270C
:10040000022708F0A1FC0646284608F09DFC02AA37
:10041000049222788DF80E00002152000420D2B2FE
:10042000009101238DF808308DF8140002238DF817
:1004300015208DF81C008DF81D2060688DF80B10BC
:1004400003AD04AA8DF80F108DF816108DF81E104C
:100450008DF809808DF80A608DF80C308DF80D70DC
:10046000069502F02BFE014610B1044809F0C0F8D1
:1004700008B0BDE8F08100BFB0FB00005FF90000EC
:100480002DE9F0410C4686B005461D499DF83080A7
:10049000204617461E4608F063FC58B1194920460D
:1004A00008F05EFC48B31848214606B0BDE8F041AC
:1004B00009F09EB804238DF80C3003AB0493042399
:1004C0008DF814302B788DF80D70002100915B00B1
:1004D0008DF8153068688DF81610012304AA8DF880
:1004E0000E608DF80F8002F0E9FD014610B107485B
:1004F00009F07EF806B0BDE8F0810823DBE700BF15
:100500007FF9000084F900008AF90000A2F90000D8
:1005100038B50546807AFFF707FFC4B2E87AFFF7DF
:1005200003FF012CC0B203D1012806D1002405E04D
:100530003CB9012804D1022400E010B9204638BD9E
:1005400020B1034809F054F8FF24F7E70324F5E746
:10055000C7F90000F8B5054608460F46FFF7D8FF73
:10056000044601460E4809F043F8032C11D80D4B00
:100570001E570D4B1C570D482246314609F038F8DE
:10058000384622463146FFF715FFC5E90064284684
:10059000F8BD0748002409F02BF82646EBE700BF1A
:1005A000D6F90000AC1A0100A81A010004FA0000F4
:1005B000EBF900007047000010B50368292B0446D2
:1005C00004D9074940F2CD1001F05CF923681F2BD4
:1005D00083BF03F01F03236002484FF0A04010BD0B
:1005E0001CF900000003005007B5019001A8FFF7B7
:1005F000E3FF019A01239340C0F80C3503B05DF886
:1006000004FB07B5019001A8FFF7D6FF019BD0F8C6
:100610001005D84000F0010003B05DF804FB07B5F9
:10062000019001A8FFF7C8FF019B03F5E0730C22BE
:1006300040F8232003B05DF804FB000010B5194C0E
:100640001949206888B0019001A802F0F1FF18B1A3
:10065000164A1D2100F000FF154A60685168127AA1
:1006600002AB03C302A900201A7003F03FF818B1CF
:100670000E4A212100F0F0FE0E4AD4F80D00516818
:10068000127A05AB03C305A901201A7003F02EF8F6
:1006900018B1064A262100F0DFFE074808F0A8FF3F
:1006A00008B010BDB01A0100B505000037FA00000F
:1006B000B41A0100BD1A010048FA000007B5002372
:1006C0000DF10601ADF8063003F092F818B10A4AB0
:1006D000352100F0C1FEBDF80630C82213FB02F33D
:1006E0004FF46B6293FBF2F3643B00EE103AB8EE0A
:1006F000C00A03B05DF804FB37FA000013B50C2004
:10070000FFF78DFF1120FFF78AFF0120FFF787FF1A
:100710000D20FFF784FF022401A80194FFF74CFF8E
:10072000019B03F5E073032240F82320204602B02A
:10073000BDE81040FFF758BF08B50C20FFF761FF78
:10074000B0FA80F0400908BD08B51120FFF759FF45
:10075000B0FA80F0400908BD08B50120FFF751FF4D
:10076000B0FA80F0400908BD08B50D20FFF749FF39
:10077000B0FA80F0400908BD10B50446FFF7DCFF71
:100780002070FFF7E1FF6070FFF7E6FFA070FFF752
:10079000EBFFE07010BD07B5022301A80193FFF73E
:1007A0000BFF019A01239340C0F8083503B05DF8B0
:1007B00004FB0220FFF718BF10B54FF08053054827
:1007C0001A6E5C6EA4B244EA0244214608F010FF9F
:1007D000204610BD5CFA00002DE9F04F2DED028B94
:1007E0009048A5B008F004FFFFF728FFFFF7E4FFEB
:1007F0008D4B1B688342014614D08C4B1B6883428F
:1008000000F08D808A4B1B68834200F08A80894B00
:100810001B68834200F08780874808F0E9FE0120CA
:1008200008F0C2FE8549864E8648316008F0E0FE39
:10083000854B0FCB08AC84E80F0000271A22202339
:10084000214682488DF82C70CDE9082302F0CAFBBE
:100850007A49306808F084FA002866D1FFF74EFF25
:100860007B4B7C4A1B7801937B4B009311467B4B5F
:100870007B4D1CA800F0ECFA45F001050020FFF7C5
:100880001DFF0120F0EE408AFFF718FF18EE900AD6
:10089000B0EE408A0EF056FB064618EE100A0F46E0
:1008A0000EF050FB3246CDE900013B466D4808F0A2
:1008B0009FFEFDEEE87A14A817EE903AFDEEC87A96
:1008C0008DF8303017EE903A8DF83130FFF754FF45
:1008D0009DF853309DF851209DF8501000936248C8
:1008E0009DF8523008F084FE00F06EFB044601468D
:1008F0005E4808F07DFE0E2C09D8FFF74CFF32262B
:100900004FF47A40A847013EFAD1FFF752FF009416
:10091000002314AA0CA91CA800F0CCFAAEE7544995
:1009200081E754497FE754497DE75349306808F02F
:1009300017FA0546002840F0B780454B454A1B781A
:1009400001934E4B009311464D4B0CA800F080FADA
:1009500004F04EFB8046002859D04A48DFF840B1E9
:10096000DFF840A108F044FE38491CA8FFF7EAFC74
:10097000A94600F00DFB47B240F307242246394652
:10098000ADF85000584608F033FE00F013FB037832
:10099000CDF80090012B06464FF0000314BF1A4615
:1009A000FF2251461CA8FFF76BFDF3783649CDF8BE
:1009B0000090012B15BF0023FF231A4600221CA81C
:1009C000FFF75EFD7378012B03D1304808F010FE6D
:1009D0004546B378012B1ED12D4808F009FE0323AC
:1009E0002C48E51B3E1995FBF3F596FBF3F62946DB
:1009F000324608F0FDFD294632461CA8FFF7DAFC16
:100A000025482246394608F0F3FD0025B1E7234882
:100A100008F0EEFD03E7002DE1D01CA902A8FFF7C6
:100A200099FDA6E791FA0000500000204C0000203C
:100A30004800002044000020A1FA00006CFA0000E9
:100A40009C070020B9FA0000F01A0100D81A010032
:100A5000400000204100002030000020380000202D
:100A6000D01A0100CEFA0000ECFA00000BFB0000E7
:100A700075FA00007FFA000089FA000020000020CB
:100A80002800002026FB000084F9000081FB000004
:100A900094FB0000A8FB0000DDFB00003CFB000015
:100AA0005AFB00007FF900008749306808F058F9C8
:100AB0000446002876D1854B854A1B780193854BE7
:100AC00000931146844B14A800F0C2F904F090FA88
:100AD000804600289BD08148DFF824A2DFF828B2A6
:100AE00008F086FD7E49592206A800F02FF906A8D5
:100AF00000F02FF9012206A90CA800F030F92246D7
:100B000006A91CA800F034F900F042FA40F30722CD
:100B100041B2ADF81400734808F06AFD01220021CB
:100B200006A800F063F90A23B0FBF3F6F6B23146EB
:100B3000504608F05DFD0E2E2CD96B4808F058FD8C
:100B40009DF815409DF81430E718E41A7FB264B29E
:100B50004FF0000922463946644808F049FD00F08C
:100B600029FA8378427801780546C0780090604879
:100B700008F03EFD39460CA800F006F921461CA8F5
:100B800000F002F900964B462A4605A914A800F089
:100B900091F9B9E758466FF0630408F029FDC146A2
:100BA0002746D7E75349306808F0DAF804460028AA
:100BB0007DD1464B464A1B7801934F4B009311461B
:100BC0004E4B1CA800F044F904F012FA00283FF440
:100BD0001EAF4248DFF80CA1454F08F009FD40491F
:100BE000592206A800F0B2F806A800F0B2F80122D7
:100BF00006A90CA800F0B3F8224606A914A800F034
:100C0000B7F80FF2BC09D9E9008900F0C1F9ADF8D5
:100C1000140000F0D3F99DF915209DF91410064633
:100C2000504608F0E5FC002E3DD19DF815409DF89A
:100C3000143004EB030BE41A4FFA8BFB64B200F0A0
:100C4000B9F98378427801780546C0780090384633
:100C500008F0CEFC58460EF063F942464B460EF0C3
:100C6000C9F90EF077FC01460CA800F08DF820467B
:100C70000EF056F942464B460EF0BCF90EF06AFCF7
:100C8000014614A800F080F800F09EF904460146E1
:100C90001B4808F0ADFC009433462A4605A91CA861
:100CA00000F008F9B1E76FF06304A346C7E7154801
:100CB00008F09EFC384625B0BDEC028BBDE8F08FF5
:100CC000CDCCCCCCCCCCEC3F75FA00004000002061
:100CD00041000020100000201800002026FB00002A
:100CE000D81A01005AFB000094FB0000B0FB000082
:100CF000ECFA00007FFA000000000020080000204D
:100D000000FC000011FC000081FB00007FB54900E1
:100D10008DF80D3003AB04938DF8151002230021DC
:100D20008DF80C208DF814300091012304AA8DF861
:100D3000161002F0C3F9014610B1034808F058FC40
:100D400007B05DF804FB00BF1FFC000002704160AB
:100D500070470178406801237022FFF7D7BF10B5B4
:100D60004C6809780170212144600172427210BD03
:100D700010B54C68097801702021446001724272FC
:100D800010BD00000000000070B5437A05460C4617
:100D900003B14C4220460EF0C3F8134B00220EF074
:100DA00053FA0FA3D3E900230EF024F90EF0D2FB7F
:100DB0007F28A8BF7F206FF07E039842B8BF1846F7
:100DC000E44300F07F03E40F2A7A2978686843EA55
:100DD000C413BDE87040FFF799BF00BFAFF30080B8
:100DE0000000000000C05F400000594010B58AB00C
:100DF0000DF10F030693012300248DF80F2001FA53
:100E000003F28DF81C308DF81D208DF81E3042F055
:100E1000010205AB009408938DF82520022321469A
:100E20004068ADF8144006AA8DF824308DF82640AD
:100E300002F044F9014610B1044808F0D9FBBDF8AE
:100E4000140040BA80B20AB010BD00BF41FC0000DF
:100E50002DE9F843174602221D4604469DF82480DA
:100E6000DDF820900E4608F0CBF902223946A01892
:100E700008F0C6F929460822201D08F0C1F94946A4
:100E8000082204F10C0008F0BBF984F8148004F087
:100E90008AF8404604F074F8304604F080F828469A
:100EA00004F07FF8002004F0D3F8BDE8F8430020F8
:100EB00004F0CCB8F0B51446A1B0022205460E46A7
:100EC0001F4681181C4B009301A808F099F90822CD
:100ED00005F10C010DF1060008F092F902222946F5
:100EE0000DF10E0008F08CF9291D082204A808F065
:100EF00087F933788DF8183073788DF819302378A6
:100F00008DF81A3063788DF81B30A3788DF81C307B
:100F1000E3788DF81D300121269B8DF81E70684600
:100F20008DF81F3004F06AF820B9044808F060FB1F
:100F300021B0F0BD0248F9E72201CC0065FC0000B9
:100F400084FC00000E4A90F919100E4B10B4047E78
:100F5000517014700C4A817E1170C17E5170017FF6
:100F60009170417FD170827F0849003A18BF0122F9
:100F70000A70C27F1A705DF8044B04F04BB800BFD2
:100F8000A6070020A0070020A2070020A10700203C
:100F9000074B82B01B88ADF804309DF80430002068
:100FA00063F307009DF8053063F30F2002B070472C
:100FB000A607002000487047A2070020014B1878C0
:100FC000704700BFA1070020014B1878704700BF91
:100FD000A007002010B50368292B044604D907494F
:100FE00040F2CD1000F04EFC23681F2B83BF03F0AE
:100FF0001F03236002484FF0A04010BD1CF9000001
:101000000003005007B5019001A8FFF7E3FF019A24
:1010100001239340C0F80C3503B05DF804FB07B51D
:10102000019001A8FFF7D6FF019A01239340C0F871
:10103000083503B05DF804FB38B5054D044645F0AE
:1010400001054FF47A40A847013CFAD138BD00BFF2
:10105000701B01002DE9F3413D4F3E4E0524022552
:1010600017F8013B019301A8FFF7B4FF019B03F5BB
:10107000E07340F8235001A816F8013B0193FFF7F5
:10108000A9FF019B03F5E073013C40F82350E7D131
:10109000152501A80195FFF79DFF019B03F5E0735E
:1010A00040F2032640F82360132401A80194FFF7BF
:1010B00091FF019B03F5E07340F2031840F82360B1
:1010C0001C2601A80196FFF785FF019B03F5E0733D
:1010D0001E2740F8238001A80197FFF77BFF019BA3
:1010E00003F5E07340F823802846FFF798FF204679
:1010F000FFF795FF3046FFF785FF3846FFF782FF81
:101100001C20FFF77FFF1E20FFF77CFF4FF4FA70D3
:10111000FFF792FF1C20FFF782FF1E20FFF77FFFE3
:101120003220FFF789FF1C20FFF76CFF1E20FFF71E
:1011300069FF4FF4FA70FFF77FFF1C20FFF76FFF86
:101140001E20FFF76CFFFA20FFF776FFD8E700BFFD
:101150007B1B0100761B010073B506460D46144645
:1011600072B601F00FFB01F04FF90028FBD11248D5
:1011700008F03EFA44F201039E420AD044F2020310
:101180009E4214D1228861680C4808F031FAFFF7BA
:1011900061FFA668304601F017FE236801950093B1
:1011A000024663680648314608F022FAEFE729460E
:1011B000044808F01DFAEAE79AFC0000B3FC0000BE
:1011C000CEFC0000F8FC00002DE9F743054601F0D5
:1011D000D9FA01F019F90028FBD12A4B2A4C9E6A52
:1011E0002A4BE41AE408240444F00104002D44D0FE
:1011F000AA692749204601F077FAEB680193AB68AA
:101200000093D5E900232349204601F082FAEB69D7
:101210000093D5E904232049204601F06EFA194BCA
:10122000DB6A990703D51D49204601F059FADFF81A
:101230007C80DFF87C900025012707FA05F3334214
:1012400006D058F825201AB14946204601F04CFA3C
:1012500001351A2DF1D1320605D50A4B10495A6BCA
:10126000204601F041FA330405D5064B0D499A6B2F
:10127000204601F039FAFFF7EDFE0B49204601F058
:101280002FFACCE700ED00E0A42601005C26010067
:1012900012FD000027FD00005CFD0000B7FD00000E
:1012A00006FE000026FE000084FD0000001B010079
:1012B000FBFD0000704770477047704770477047EC
:1012C00038B50E4B1B680021986807F041FF4FF4BA
:1012D0000041002001F03EF818B1094A142100F045
:1012E000BBF8084D00F062FF0A2445F001054FF4F9
:1012F0007A40A847013CFAD138BD00BF78000020F1
:10130000F6020100801B01007047000007B5044B86
:101310000093044A402300F0E7FE03B05DF804FBAD
:101320007D130000AA07002030B50F4D0FCD89B006
:101330006C460FC495E80F0084E80F0006222823AE
:10134000CDE9002309480A4B06930022694600F0C4
:101350006BFC18B1074A462100F07EF8064B0022CC
:101360001A7009B030BD00BF941B0100540000206A
:1013700000509D0064030100A807002038B50E4806
:101380000E4C0F4D002323700378EB5CD2B273B187
:10139000043003F0CDFC18B10A4A562100F05CF885
:1013A000094B1B7813B12378002BFCD038BD0C30CF
:1013B00003F06CF9EFE700BF54000020A9070020FC
:1013C0002009002064030100A807002008B5084890
:1013D000084A0378D35C33B1043003F027FCBDE83E
:1013E0000840FFF7A1BF0C3003F0E4F8F7E700BFB7
:1013F0005400002020090020FFF796BF10B50848D0
:10140000D4B20378074AD35C224623B1043003F0F8
:101410008FFC204610BD0C3003F038F9F9E700BF0F
:10142000540000202009002008B50948094A037823
:10143000D35C012243B1043003F0F4FC002814BF54
:101440004FF0FF30012008BD0C3003F08FF9F5E7B5
:10145000540000202009002000B583B002900091C4
:10146000019244F2010071466A46FFF775FE03B02F
:1014700000BD0000024B4FF43C6043F001031847ED
:10148000C01B0100F8B51F491F4B0025C1F8405192
:10149000C1F84451C1F84851C1F84C51C1F800514C
:1014A000C1F804511B684BB3D1F8044517490968CA
:1014B000641A24F07F442F461A68A24209D8A41A5D
:1014C00015441A7CDE691AB1D3E905201F749047D0
:1014D000AEB90F4A0F4B11781B788B4205D10133FF
:1014E000DBB2022B08BF0023137012780A4B43F8BB
:1014F00022500A4B4FF48012C3F80021F8BD334646
:10150000DAE700BF00100140FC070020F8070020C8
:10151000EC070020ED070020F007002000E100E0CC
:101520002DE9F74F9F49A04A0B7812789F4D9A42B8
:1015300055D00133DBB2022B08BF00239C4A0B704D
:101540009C49166851F82300331823F07F43136039
:1015500000222B6817461446944613B942B12B60FB
:1015600006E01968814228D902B12B60091A196076
:101570004FF0010B2B68DFF8509200934FF0000AF8
:10158000002F46D03C46FF69894B666819688A4A35
:10159000A368701A20F07F40904200F2E18003447B
:1015A00001202074286823600021C4E90111E16151
:1015B000002840F0DD802C60E2E7401A0C44D96836
:1015C000D3F81CE0C3F800C031B1321922F07F42D9
:1015D000C3E90121DF611F4673460122BDE70027F1
:1015E000BB46C7E799F802402E68431CDBB29C4219
:1015F00008BF002389F80030182303FB009003790B
:101600008468022B6AD0032B00F09480012B00F039
:10161000948099F8000099F801308342E2D12B6858
:10162000BAF1000F05D1009A9A4202D1BBF1000F26
:1016300043D0002B41D0D3F800A0604D5C4BD5F8CF
:1016400004751C68DFF884813E1B98F8003026F092
:101650007F4603369BB94FF48033C5F84433C5F851
:101660000433574B4FF40032C3F880211A604FF017
:101670000109C5F80090FFF7FDFE88F80090B2451B
:101680002CBF5444A41924F07F44C5F84045D5F834
:101690000435DB1B23F07F43E41B033324F07F443A
:1016A000A3420AD9D5F80435C5F84035FFF7E2FE64
:1016B000434B4FF40032C3F80021424B00221A7012
:1016C00003B0BDE8F08F44450BD04046D8F81C80ED
:1016D000B8F1000FF7D1002323749AE7B0463046E3
:1016E000F6E784420DD1F3692B6053B93349019079
:1016F00001228A602E490B60324B1A70FFF7BAFE46
:101700000198D8F81C20D8F80030C26112B11168D5
:101710000B4413602B68B34218BF4FF0010ADAE79D
:101720003074F6690123002EFAD1002B3FF471AF1B
:101730002E606EE700231846F5E7267C002E7FF426
:1017400068AFC16861600369A3604369E36083694E
:10175000A3611C4B1B78002B18BF3146616013E757
:10176000891B21F07F41994234BF5B1A002317E7A0
:101770000168994213D3C91A0160E0611BE79B1B02
:10178000CE6908463EB131460E68B342F7D8F61A24
:101790000E600E4601462360E661CC61F0E601462C
:1017A000F2E700BFED070020EC070020FC07002057
:1017B000F8070020F0070020FEFF7F000010014026
:1017C00000E100E0EA07002000080020EB0700200D
:1017D00072B6024A13680133136070470C09002087
:1017E000034A1368013B136003B962B6704700BF38
:1017F0000C090020EFF30583C3F308032BB9EFF3C3
:101800001480C04300F001007047012070470000C1
:1018100008B5FFF7EFFF012803D00449432000F08B
:1018200031F8BDE80840FFF7D3BF00BFD80301007F
:1018300008B5FFF7DFFF012803D00449512000F06D
:1018400021F8BDE80840FFF7CBBF00BFD803010077
:101850001EF0040F1CBFEFF309800AE0EFF30880CD
:101860000549064A884201D8904202D88D464FF079
:101870000000034B184700000000022000E0012098
:10188000C911000007B5ADF8000001916A460021BA
:1018900044F20200FFF760FC03B05DF804FB10B5F2
:1018A000034653E8000F0A4643E8002494F0000F73
:1018B000F7D110BD10B5034653E8002F42EA0100EE
:1018C00043E8000494F0000FF6D110BD10B50346B4
:1018D00053E8000F00EA010243E8002494F0000FEF
:1018E000F6D110BD10B5034653E8002F02EB0100FE
:1018F00043E8000494F0000FF6D110BD10B5034684
:1019000053E8002FA2EB010043E8000494F0000F1D
:10191000F6D110BD0121FFF7CDBF0021FFF7D6BFE3
:1019200010B50446002834D003681BB91A49FF20BB
:10193000FFF7A8FF636823B917494FF48070FFF7DA
:10194000A1FFA36823B9144940F20110FFF79AFFE1
:10195000E36823B910494FF48170FFF793FF238A9E
:1019600023B90D4940F20310FFF78CFFD4E901239E
:1019700021689B1ADBB20A60013BDBB2FF2B2268B5
:1019800002D10020107110BD1168481C10600B704E
:10199000F2E70E20F7E700BF2D04010038B504463A
:1019A00020B912494FF49270FFF76CFF0020FFF747
:1019B0002FFF2268616813688B4215D9591E116088
:1019C00013F8013C228AE56802FB03552268A368EC
:1019D00011685B1A1179DBB2994200D213710020B1
:1019E000FFF726FF284638BD0025F8E72D04010043
:1019F00038B50C46054620B90E4940F24710FFF7AE
:101A000041FF24B90B494FF4A470FFF73BFF0020BE
:101A1000FFF7FEFE2A681368591C1160EA68A41AD1
:101A20002A8AB4FBF2F41C70BDE838400020FFF7AE
:101A3000FFBE00BF2D0401001FB503788DF80030F4
:101A40008388ADF8043083688DF80630C3688DF85C
:101A50000730036902934369054A0393054B6846BF
:101A600053F8213052F82110984705B05DF804FB77
:101A7000100900201809002010B50368292B04461E
:101A800004D9074940F2CD10FFF7FCFE23681F2B55
:101A900083BF03F01F03236002484FF0A04010BD36
:101AA0001CF900000003005007B5019001A8FFF7E2
:101AB000E3FF019A01239340C0F8083503B05DF8B5
:101AC00004FB0000024B4FF4807043F00103184701
:101AD000D01B01002DE9F743154690F80080354AE8
:101AE00042F82850344A42F828304B7B06460C46D0
:101AF00083B30B684FF0A04703F5E07340F20C622C
:101B000047F823204B6803F5E0734FF0010947F8CD
:101B100023200868FFF7C8FF6068FFF7C5FF236848
:101B200003F5E07340F20D6247F82320636803F584
:101B3000E07347F82320FFF7C5FF00276368019390
:101B400001A8FFF799FF019AD0F81035D340DB07C1
:101B50000CD5FFB9194A002D434608BF2A46214635
:101B6000301D03B0BDE8F04302F052B82368019382
:101B700001A8FFF781FF019B09FA03F3C0F80C35B8
:101B8000FFF7A0FF01372068FFF78EFFFFF79AFFEE
:101B9000092FD3D16368019301A8FFF76DFF019A64
:101BA00001239340C0F80C35FFF78CFF6068FFF706
:101BB0007BFFCFE71809002010090020391A000028
:101BC0001FB503788DF800304368019383688DF862
:101BD0000830C368054A0393054B684653F8213023
:101BE00052F82110984705B05DF804FB2409002045
:101BF0002C0900201FB503788DF80030436801934D
:101C000083688DF80830C368054A0393054B68461E
:101C100053F8213052F82110984705B05DF804FBC5
:101C2000240900202C090020F0B5194B90F800C0C1
:101C3000DFF86CE043F82C20164B16460A6943F88F
:101C40002C200C464B7F0EF80C3007460FCC89B089
:101C50006D460FC594E80F0085E80F003B78CDF87E
:101C600010C01EF803304BB1002E0B4A694608BF66
:101C70003246381D02F0E0FE09B0F0BD002E074AE2
:101C8000694608BF324607F10C0002F0A7FBF3E7F4
:101C90002C09002024090020C11B0000F51B0000B6
:101CA0002009002010B5044618B906493120FFF775
:101CB000E9FDA2682AB16369216820699847002379
:101CC000A36010BD830401000EB433B5059D044626
:101CD00018B911494220FFF7D5FD63691BB90E49B8
:101CE0004320FFF7CFFD23681BB90B494420FFF7C2
:101CF000C9FD63681BB908494520FFF7C3FD35B12D
:101D000006AB01AA29462046019300F071F802B003
:101D1000BDE8304003B0704783040100826830B4EE
:101D20000468551C8560A154D0E901329A4202D35F
:101D300030BCFFF7B7BF30BC704700002DE9F84F4B
:101D40009946DDE90A431546824688460A46012738
:101D5000AA420FD24F4538BF4F4613F0010B01D1B5
:101D600064B900240126B9F1010F1CD909F1FF392A
:101D70006E43F8E70137B2FBF5F2E9E79B0710D5B0
:101D8000B9F1000F0CBF30262026BC42EAD9013C35
:101D900031465046FFF7C2FF002CE2D0BC42F6D1DC
:101DA000E0E72026F1E7B8FBF6F39D42E0D9DFF843
:101DB0003C90B8FBF6F3504619F8031006FB138865
:101DC000FFF7ACFF3346AB42B6FBF5F6F1D2BBF101
:101DD000000F00D034B9BDE8F88F20215046013CF7
:101DE000FFF79CFFBC42F8D8F5E700BFD61B010007
:101DF0002DE9F74F0F469046054620B9B74940F206
:101E00005220FFF73FFD6B6923B9B4494FF41570B9
:101E1000FFF738FD2B6823B9B04940F25520FFF792
:101E200031FD6B6823B9AD4940F25620FFF72AFD1A
:101E3000002F00F0558117F8011B49B92B7B002BAF
:101E400000F04E81284603B0BDE8F04FFFF72ABFEF
:101E5000252940F0BD8000263A4612F8013B2D2B83
:101E600025D0302B27D02B2B28D000242A2B07F16C
:101E7000010226D1D8F80030191DC8F800101B68DF
:101E800017461C443B782E2B27D101374FF0000A10
:101E90000A20394611F8012BA2F1300CBCF1090FD0
:101EA0001DD800FB0A22A2F1300A0F46F1E746F0E6
:101EB00001061746D0E746F00206FAE746F00406A8
:101EC000F7E712F8013CA3F130010929DAD80A2119
:101ED00001FB0434303C1746C8E74FF0000A3A468D
:101EE00012F8011B01F0FB0068281746F8D078298A
:101EF00009D86F290BD8632964D021D8252967D048
:101F0000582900F095803B78002B94D196E77039E2
:101F10000829F8D801A252F821F000BFB320000030
:101F2000071F0000071F000045200000071F0000DA
:101F30001B200000071F0000071F000031200000C9
:101F4000642901D06929DED1D8F80020111DC8F814
:101F50000010D2F800B08BEAEB72A2EBEB724FF0FC
:101F600001090A21092A37DCD14538BFD1462CB1F5
:101F7000BBF1000F01DB720700D5013CB30702D5AE
:101F8000BAF1000F03D0F00701D454BB0024BBF119
:101F9000000F32DACBF1000B2D212846FFF7BEFEF1
:101FA00006F00302022A04D1BAF1000F01D144BBAA
:101FB0000024CDE9004653460A2259462846FFF739
:101FC000BDFEA0E7D8F800301A1DC8F80020197827
:101FD0002846FFF7A3FE96E709F10109B2FBF1F2EB
:101FE000C0E7A145D3D2013C20212846FFF796FE49
:101FF000002CCBD0A145F6D1C9E77107D0D52B2154
:10200000CBE7A145D5D2013C30212846FFF786FE1B
:10201000002CCDD0A145F6D1CBE7D8F800100A1D91
:10202000C8F80020CDE9004653460A220968C5E7F2
:10203000D8F800100A1DC8F800205346CDE9004624
:102040001022F3E7D8F800301A1DC8F8002016F067
:102050000106D3F8009024D1B9F1000F03D048460F
:1020600006F08EFD0646B4421DD809F1FF3919F875
:10207000011F00293FF447AF2846FFF74FFEF6E760
:1020800028460136FFF74AFE19F806100029F7D155
:10209000A642BFF438AF20212846013CFFF73EFEA0
:1020A000F6E70026F0E720212846013CFFF736FE40
:1020B000D9E7D8F800301A1DC8F80020302128468A
:1020C0001C68FFF72BFE78212846FFF727FE002229
:1020D0000823CDE90032214610226FE7C904010030
:1020E00003B0BDE8F08F00BFF0B595B01D461646B1
:1020F00008460C4600F00EFD1A9B0D93CDE90865CD
:1021000000252B46082205A920460A958DF82C505B
:102110000C9500F027FD079B0293069B03939DF807
:1021200014308DF8115003F00302012A1DD1BDF8BF
:102130001420059DC3F3C203C2F383168DF810303B
:10214000B20008230EA9204600F00CFDC5F395252A
:1021500008AB0093324602AB0EA9284600F080FB84
:10216000204600F0DBFC15B0F0BD022AF8D1BDF826
:102170001650C3F3C203C5F389158DF81030082734
:10218000082D2E4628BF08263B4632460EA920467B
:1021900000F0E8FCAD1B08AB02AA31460EA837449C
:1021A00000F0C2FB002DEBD1DAE7000008B5FFF725
:1021B00023F90748042100F0BBFA002803DA054997
:1021C0004820FFF75FFB044B01225A7108BD00BF96
:1021D000E42601001605010068000020037813F0D2
:1021E000040215D003F00303012B03D0022B09D006
:1021F000012070470B6802880233C2F38312134434
:102200000B60F5E70B684288023303EB9213F7E7A4
:10221000104670472DE9F04FDFF834A10F4687B024
:102220000446861C00201546FFF7F2FADAF8002073
:102230003A60DAE901130B4401339B1A0AF21C4796
:102240000AF583690AF21448B3421BD30021002D1A
:1022500077D004F00F04A40144F0050464F30F01E7
:10226000DAF80020DAF808301340033332444AF831
:1022700023100020CAF80020FFF7DAFA012007B087
:10228000BDE8F08F01213846FFF72CFB4846FFF7E9
:1022900041FB4046FFF73EFBDAF80400DAF808B0ED
:1022A000029000EA0B0003300AEB800002A9FFF75E
:1022B00095FF029B0246E0B90BEA03010AEB81019C
:1022C000C8680390991C013303EA0B030AEB8303EC
:1022D00000F003000128DB6802912AD002280BD00D
:1022E0001A4901924FF4BF70FFF7CCFA019A934656
:1022F0000CE00BEA0300D6E74FEA134BBDF80E30B3
:10230000C3F38913033301EB930302934046FFF7B2
:1023100004FB10B1029BCAF8043059463846FFF757
:10232000E1FADAE901231344DAF8002001339B1AB9
:102330008AE74FEA134BBDF80C30C3F383130B4409
:10234000E3E7A40544F006018AE700BF8605010023
:10235000340900200B4B0C48FF2210B59A60002274
:10236000C3F81824C3E90022C3F81424012283F817
:10237000202400F08BFB044610B9044800F0FCFC5C
:10238000204610BD34090020BC260100E81B0100D6
:1023900030B50A4C71B10A4A0A49121BD20800230F
:1023A0009A4201D1002030BD31F82350854202D03D
:1023B0000133F5E7034654F83300F4E75C260100E7
:1023C000BC2601003C070020094B013903EBC0008B
:1023D000032909D8DFE801F0020A04060220704749
:1023E000007970474079704700207047042070479B
:1023F0005C260100034BD3E90030C31A5842584110
:10240000704700BF340900202DE9FF47FFF7F2FFB6
:10241000002840F083807E4DC5F81804BFF34F8F2D
:102420006868AC6800902040033005EB8000694686
:10243000FFF7D4FE009B18B1D5F81824002A69D004
:1024400004EA03029F1C013305EB8202234005EBE3
:102450008303D268DB68029302F00303022B01922C
:1024600000976ED1BDF806306A48C3F38918B8F1F9
:10247000500FC14628BF4FF0500969F38F1309F17F
:102480000801ADF8063000F019FB0646002800F000
:10249000A98000F03FFB00233046082201A900F08C
:1024A0004BFB24EA07030133B9EB830F4FEA8300A8
:1024B0003FD95FFA89F9002837D004EA0701C4B28E
:1024C000A9EB040A0331A146534C05EB81015FFAE5
:1024D0008AFA08234A46304600F02EFB34B109F14F
:1024E000080352462146304600F026FB08F1030857
:1024F00007EB98070097D5F81834D5F81044002B4F
:102500005FD0304600F00AFBFFF774FF80F0010057
:10251000C0B204E02A689A4204D86A60002004B07D
:10252000BDE8F08704EA03007EE73B4904468246A3
:10253000CFE704EA0701033108234A4605EB81018E
:10254000D1E7012B4ED1BDF804303248C3F38311DB
:10255000062928BF062161F38913023101F00F011A
:102560008900ADF8043000F0A9FA0646002839D0F9
:1025700000F0D0FA0023082201A9304600F0DCFA6E
:102580000027BDF80420C2F38312BB00BA4203F156
:102590000803B0D900994A1C21400331009205EB91
:1025A00081010422304600F0C7FA0137E9E7E36809
:1025B0005B7923B1236831461B6820469847E3685E
:1025C0001C68002CF3D1304600F0A8FA2046FFF733
:1025D0001FF9D5F818340BB9009B6B600020FFF78A
:1025E00027F991E7D5F8104454B90C4B0C480D4924
:1025F000C01AC008000440F0020000F071F883E740
:10260000236820469B689847E3681C68ECE700BF96
:1026100034090020BC260100400900205C2601008E
:10262000A4260100DD0501002DE9F74F274E0446E1
:102630000F46914601A901221846D6F808A09846EF
:10264000FFF7E8FD78B3019D0023A81C434503EB89
:10265000000132D100211E48FFF721F94FEA144949
:1026600080F3100B1B4B1C4A9B1AB9EBD30F04D3FE
:102670001A4940F2A310FFF705F96B1C03EA0A039D
:10268000E40006EB830304F0380449EA0B4205EA50
:102690000A0544F00104DA60033544EA881343EA8A
:1026A000872346F8253096F820341BB1FFF7ACFE9F
:1026B0000028FBD103B0BDE8F08F01EA0A0106EB68
:1026C000810159F82320CA600133BFE73409002093
:1026D000500D0020BC2601005C260100860501008B
:1026E00000231A46FFF7A0BF07B50123019201AAF4
:1026F000FFF79AFF03B05DF804FB1FB5CDE9012396
:10270000069B039301AA0323FFF78EFF05B05DF834
:1027100004FB1FB5CDE90023069B0293079B03939F
:102720006A460423FFF780FF05B05DF804FB000054
:1027300030B51349D1F810440346002022464AB967
:10274000DC682071D1F8104484B9C1F81034DB681A
:102750001A600AE0D2681579854201D01268EEE766
:1027600001300A28EAD14FF0FF3030BDE468DA6862
:1027700024681460D1F81024D2681360F5E700BF14
:102780003409002038B5084B0125D3F8104483F8EC
:10279000205404B938BDE3685D71236820465B6846
:1027A0009847E3681C68F4E73409002010B5037A01
:1027B000052B0C460FD0437A23B1084A084920461E
:1027C000FFF782FA07492046FFF77EFA2046BDE868
:1027D0001040FFF767BA002AF8D0F3E7F2050100CE
:1027E000F70501001706010073B5C38804460D46BE
:1027F00033B1144A00921449144A2846FFF764FA88
:10280000217A05291CD0637A4BB1A088FFF7DCFD43
:102810000F4B104953F820202846FFF755FA227A2B
:102820000D4BA08853F822600021FFF7B1FD0B4942
:1028300003463246284602B0BDE87040FFF744BA6E
:1028400002B070BDF205010002060100FA050100A8
:10285000F41B0100F7050100181C01001A06010015
:102860002DE9F04385B01F460C9D002395F80C9090
:102870002B7306460C46904629463846FFF7B4FFB0
:10288000B8F1060F09D8DFE808F00412181F283342
:10289000400031462846FFF717FA002229463846FD
:1028A000FFF784FF85F80C9005B0BDE8F08322683F
:1028B00031462846FFF708FAEFE7D4E9002331460E
:1028C0002846FFF701FAE8E7A3680093D4E900235C
:1028D00031462846FFF7F8F9DFE7E3680193A3687C
:1028E0000093D4E9002331462846FFF7EDF9D4E7F9
:1028F00023690293E3680193A3680093D4E900235A
:1029000031462846FFF7E0F9C7E763690393236977
:102910000293E3680193A3680093D4E9002331464E
:102920002846FFF7D1F9B8E708292DE9F84F804686
:102930000E4617461C463BD8002593F80C901D7395
:1029400019461046FFF750FFDFF88CA0DFF88CB077
:10295000AE422FD918F8052059462046FFF7B4F9A2
:102960000135082DF4D11949194DDFF874B020460E
:10297000FFF7AAF94FF0000A564522D918F80A20A5
:102980007E2A1CD81BF8021011F0970F08BF2E22C8
:1029900010492046FFF798F90AF1010ABAF1080F29
:1029A000EAD1012221463846FFF700FF84F80C9057
:1029B000BDE8F88F51462046FFF786F9D0E72E2272
:1029C000E6E729462046FFF77FF9E5E72E060100F6
:1029D0002C060100300601002A0601002406010031
:1029E000392301002DE9F74F99469DF830300093C7
:1029F00088469346064618B92349B620FEF742FF9B
:102A0000F28871794A43043A4A4505D81E49019231
:102A1000C420FEF737FF019ADBF80070B6F806A075
:102A200007EB0901914209F1040488BFA2EB0907F1
:102A3000B4FBFAF5CBF800700AFB154445B9AAEBD4
:102A4000040BBB4528BFBB462FB903B0BDE8F08FD0
:102A50003668013DF2E7009B043408EB050034447E
:102A60005A466BB12146A7EB0B0706F0C9FBBA45E6
:102A70005D443668D3464FF0000428BFBB46E3E709
:102A800001462046EFE700BF7E060100FEF748BF83
:102A9000F8B546790146721E0546002393422D681B
:102AA00003D30024A64202D8F8BD0133F6E70F682D
:102AB0002846FEF79DFF01343946F3E72DE9F04142
:102AC000CD1C078A0646FEF769FF043F3D440446D5
:102AD000B5FBF7F5D0B14FF48073EDB2C7808380BA
:102AE000013D066080460027AF4210D23046FEF717
:102AF00055FF40B16379013363710137C8F80000B5
:102B000006608046F0E72046FFF7C2FF002420461B
:102B1000BDE8F08101210430FEF7E4BE10B50121CB
:102B200004460430FEF7EAFEC0B220B92046BDE8F4
:102B30001040FFF7ADBF10BD1FB514460392002231
:102B4000009203AAFFF74EFF039BA34206D004495D
:102B5000F62004B0BDE81040FEF794BE04B010BDEE
:102B60007E0601001FB5144603920122009203AABB
:102B7000FFF738FF039BA34207D005494FF480704D
:102B800004B0BDE81040FEF77DBE04B010BD00BF2C
:102B90007E0601000268136851688B4283BF826819
:102BA00001325218C81A88BFD01A704738B50C467F
:102BB000054618B904498320FEF764FEAB68A342BA
:102BC0008CBF601C002038BDD706010038B5044614
:102BD00018B907499820FEF755FE236820461D685E
:102BE0005968FFF7E3FF431B5842584138BD00BF07
:102BF000D70601002DE9F0410D46044618B92D49CC
:102C0000A320FEF73FFE1DB92A49A420FEF73AFE95
:102C10000020FEF7FDFD2046FFF7D8FF074610B164
:102C2000237C002B43D1D4F800802046D8F80460E0
:102C3000D8F80410FFF7BAFFC8F804002FB12768CE
:102C400020463968FFF7B2FF3860E2686068531EBB
:102C5000072B24D8DFE803F0041423182323231CB4
:102C60002B7883552046FFF795FF23689A688242A8
:102C70001BD300240020FEF7DBFD2046BDE8F081D9
:102C80002B8820F81630EDE72B6840F82630E9E76E
:102C9000D5E9002300EBC600C0E90023E2E729469E
:102CA00006FB020006F0ACFADCE79860E1E70424DA
:102CB000E0E700BFD706010010B5044620B9064979
:102CC00040F22B20FEF7DEFD236818685B68C31A0C
:102CD0005842584110BD00BFD70601002DE9F04110
:102CE0000C469046054618B92249E720FEF7CAFD72
:102CF0001CB92049E820FEF7C5FD0020FEF788FD3D
:102D00002846FFF7D9FF002832D12F683E68B8F176
:102D1000000F04D139682846FFF748FF3860EA6899
:102D20006968531E072B1DD8DFE803F0040D1C1142
:102D30001C1C1C158B5D237000240020FEF778FD01
:102D40002046BDE8F08131F816302380F4E751F8D1
:102D500026302360F0E701EBC601D1E90023C4E986
:102D60000023E9E706FB0211204606F049FAE3E7F3
:102D70000524E2E7D7060100826800239360826899
:102D80001361826853618268D3608268536082688D
:102D90001360704710B50B4AA2F58C739A4201D8A4
:102DA00000200CE0D11A091103EBC10453F83110D3
:102DB000814205D802D204F10803EFE7606810BD34
:102DC0002246EBE7441D010008B5FFF7E3FF024B85
:102DD000002808BF184608BD441D0100C0B20023EA
:102DE00048700B707047000070B50D46044618B966
:102DF00008497120FEF746FD23681A6812683AB147
:102E00001A681B6851681B682846BDE8704018475F
:102E100070BD00BFB60A0100F0B5044687B018B90E
:102E20002D493720FEF72EFD21680A7E0B689E682B
:102E300006EBC20CD0B256F832609CF805309CF814
:102E400004704FEAC20E9CF8062012F0010F4FEA00
:102E5000530503F0010336D0002B34D1D1F800C064
:102E60009CF80CC0013060452DDA086880680EF1CE
:102E7000080C60444079B5EB500F24D10B68087EF4
:102E80009B6803EB0C0253F80CC0537992F804E0F2
:102E9000927903F001030130C3F103035201C0B280
:102EA000DBB202F02002087601A904F10C00CDE9A2
:102EB000027ECDE9046C8DF804308DF8055000F0E9
:102EC000E7FF07B0F0BD52014FF0000CDBB202F09B
:102ED0002002E646E8E700BFB60A01002DE9F84FF8
:102EE0000E46044618B927498720FEF7CBFC256813
:102EF000DFF894904FF000080020FEF789FC16B927
:102F000023681B683BB9606800222946FFF7E6FE8C
:102F100088B3C5F8008000260020FEF789FC7EB348
:102F20002B681B694BBB2F1D68691022394606F0C0
:102F300039F9A8B104F10C0B584604F1080A00F065
:102F40004DFF23464A4639465046FEF7C3FD18B1A9
:102F50000C49B420FEF796FC584600F0F5FE6F6170
:102F600085F818802046FFF757FF014640B12046FC
:102F7000FFF73AFFC0E70126CEE72B681F69D3E7CA
:102F8000BDE8F88FB60A01008D2F000038B50C4659
:102F9000054618B91249D220FEF774FC23681B6855
:102FA0001BB90F49D820FEF76DFC297871B922684A
:102FB000137E10680133007BDBB2984207D9137689
:102FC0002046FFF729FF014608B938BD03212046F6
:102FD000FFF70AFF20460121BDE83840FFF77EBF1A
:102FE000B60A0100F8B50D46044620B919494FF458
:102FF0008470FEF747FC636823B9164940F2091054
:10300000FEF740FC63689B6823B912494FF4857052
:10301000FEF738FC25B90F4940F20B10FEF732FCE1
:103020000D4A2346294604F10800FEF753FD0746E2
:1030300070B904F10C0000F087FE23681F6095E86A
:103040000F002668043686E80F0023681A1D5A61AF
:103050003846F8BDB60A01008D2F000037B5054689
:10306000019120B9144940F22D10FEF70BFC019B91
:1030700023B911494FF49770FEF704FC019B9B683C
:1030800023B90D4940F22F10FEF7FCFB019B1B7B7F
:1030900023B909494FF49870FEF7F4FB686801A959
:1030A000FFF7A8FD044618B901462846FFF716FFAA
:1030B000204603B030BD00BFB60A01002DE9F04143
:1030C00086B00F46DDF8308016461D46044620B90E
:1030D000194940F24F10FEF7D5FB26B916494FF4B7
:1030E000A870FEF7CFFB25B9134940F25110FEF747
:1030F000C9FB0023ADF8003001238DF8003001A991
:103100000E4B01932046CDF808D003968DF8105051
:103110000597FFF7A3FF30B106B0BDE8F081B8F125
:10312000000F00D0C0479DF80030002BF7D19DF86C
:103130000100C0B2F0E700BFB60A0100DD2D0000BB
:1031400000F1804000F5C040002382B003600368B6
:103150000193019B02B07047C208012300F00700F1
:103160008340885C03438B547047000010B50368AC
:10317000292B044604D9074940F2CD10FEF782FB03
:1031800023681F2B83BF03F01F03236002484FF007
:10319000A04010BD1CF900000003005013B50190C1
:1031A00001A80C46FFF7E2FF019B00EB8300D0F87B
:1031B000003723F44033C0F80037D0F8003743EA33
:1031C0000443C0F8003702B010BD00004FF0A04328
:1031D000D3F810350360024BD3F8103543607047C5
:1031E000000300502DE9F04F00248BB0CDE90244DC
:1031F000604D4FF48072012102F1804303F5C0431A
:103200001B68012B07D1D5F804330B4203D090B2D1
:10321000FFF796FF0C430432B2F5907F4FEA41016D
:10322000EAD1544BD3F87C31012B08D14FF4BE7056
:10323000FFF786FF02A844F00044FFF7C7FFE3B2A0
:10324000D3B14D4F00250126344210D0AB0003F11D
:10325000804303F5C043D3F81005D3F8101557F891
:10326000253023B1C1F30141C0F305209847013552
:10327000082D4FEA4606E7D1002C77DA0023CDE986
:1032800004334FF0FF33CDE90633DFF8ECB03B4BAE
:10329000019300273D46019B13F9014F0193631CE5
:1032A0004ED0C4F3C2080122E3B204F03F0604F09A
:1032B000070402FA04F408F128020DEB020818F8DA
:1032C000102C22423CD00BEB06024FEA931A92F9E3
:1032D00030205BF82290B9F1000F07D1BAF1030F4B
:1032E0002ED104A93046FFF737FF02E0BAF1030FF1
:1032F000F7D008A80896FFF739FF089A18F8201C9D
:1033000002F5E072214250F82220C2F3014206D0B9
:10331000022A15D1BAF1030F0CD1514605E0032A58
:103320000ED1BAF1030F05D102213046FFF736FF67
:103330000135EDB2B9F1000F02D051463046C84711
:103340000137042FA7D18DB108A8FFF73FFF029BDB
:10335000089A9A42099B02D103998B4206D00292A5
:103360000393049A059B0692079390E70BB0BDE880
:10337000F08F00BF00600040C00E0020190F002039
:1033800010B5054C23681BB904495120FEF77AFAA1
:103390002368BDE810401847280F0020110B0100DA
:1033A00038B50C4628B90C497720FEF76BFA002097
:1033B00038BD0A4B9842FAD10020FEF729FA084B93
:1033C0001D7915B901221C601A710020FEF730FA30
:1033D000002DECD01120EBE7110B01000020004084
:1033E000280F002018B906499B20FEF74BBA054B61
:1033F000984201BF044B00221A601A71704700BF47
:10340000110B010000200040280F00200023435032
:1034100082B043580193019B02B0704770B5D0F859
:10342000103105460C4653B14FF48871FFF7EEFF9B
:1034300063795A0703D523680BB101209847D5F863
:1034400014315BB14FF48A712846FFF7DFFF6379CF
:103450001B0703D523680BB102209847D5F81C3110
:103460005BB128464FF48E71FFF7D0FF607910F002
:10347000100002D1236803B19847D5F8043163B135
:103480004FF482712846FFF7C1FF0123237123689F
:103490001BB1BDE870400320184770BD01490248C8
:1034A000FFF7BCBF300F002000C0014001490248B7
:1034B000FFF7B4BF380F00200010024000F1804039
:1034C00000F5E040002382B0036003680193019B94
:1034D00002B07047F0B5544B544CD3F8043194F813
:1034E0002E2085B0002B3BD04FF48270FFF7E6FF13
:1034F0002AB394F82F3013BB4B4AD2F80031002B7B
:1035000032D04FF48070FFF7D9FF638B94F82D0011
:10351000834250D921891B1A9BB289B26383CB1A8B
:10352000616801EB4301C2F82C16C2F830064FF473
:103530008270FFF7C3FF3C4B01225A6014E06368BE
:1035400002932389ADF80C30E36800218DF8041054
:1035500033BB2374236801A89847002384F82F30D5
:1035600094F82E30002BC7D12F4BD3F810315BB11C
:103570004FF48870FFF7A2FF0023237402238DF815
:10358000043001A823689847274BD3F814310BB3B4
:103590004FF48A70FFF792FF0023237405B0F0BD4B
:1035A000208B608363602081E160002AD2D11E4BB2
:1035B00001221A60CEE7BAD1E168012084F82F0019
:1035C00031B100206083C2F82C16C2F83036AEE765
:1035D0006183ACE766694FF000470125002EDDD01E
:1035E000B6FA86F227FA02F34632920026EA03067A
:1035F00002F1804303F5E0431B68002BEED0104638
:10360000A2F58C72FFF75AFFD30882F00402C2F3CE
:1036100080028DF808308DF8045023688DF8092059
:1036200001A89847DAE700BF00700040400F002073
:1036300070B50E46054618B92749D620FEF722F97F
:103640001EB92549D720FEF71DF9244C94F82C30DB
:10365000002B3FD1224A29782660C2F8F0156978FC
:10366000C2F8F415E97884F82E10237484F82D300C
:10367000636184F82F3001216FF0004384F82C102F
:103680004FF48270C2F80833FFF718FF4FF48070D0
:10369000FFF714FF4FF48A70FFF710FFAD78072D86
:1036A00003D910496B20FEF7EDF80F4B6D01EDB219
:1036B00083F8075380221A60094B0222C3F80423BF
:1036C00094F82E10012209B1C3F80423C3F8002591
:1036D000002070BD0820FCE7680B0100400F0020AF
:1036E00000700040B50B010000E100E070B53D4EF8
:1036F00096F82C3004460D4623B93B4940F223107E
:10370000FEF7C0F8072C04D937494FF49270FEF742
:10371000B9F8364BD3F8F435DBB23BB196F82D301F
:1037200023B131494FF49370FEF7ACF8EB79013BCC
:10373000082B04D92C494FF49470FEF7A3F82B7A88
:10374000092B04D928494FF49570FEF79BF8337C78
:10375000002B45D104F10C0206EB42031B7923B97F
:1037600096F82D30013386F82D3006EB4206EB79C2
:1037700033712B7AAA7873716B7812021B0102F4F1
:10378000E06203F0300313432A7802F0030213438C
:10379000EA78120302F4805213432A79120402F4E5
:1037A000E02213436A79120502F480121343AA79C6
:1037B000120602F080721343220102F1804202F5E8
:1037C000E042240104F18044C2F8183504F5E044D5
:1037D000EB792A7AC4F814250020C4F8103570BD9E
:1037E0001120FCE7400F0020680B01000070004032
:1037F00070B5364C227C02F0FF03002A63D1344AB4
:10380000012503262574C2F80863C2F82C16C2F8F5
:10381000305694F82D20AA420CD919461A0102F10B
:10382000804202F5E0420133082BC2F81415C2F8B9
:103830001015F3D100F10C03000104EB430300F178
:10384000804000F5E0401A795B79C0F81435C0F883
:1038500010251F4A01231360536042F21073D2F8FF
:10386000041131B9013BFAD11A4940F29B10FEF71D
:1038700009F84FF48070FFF721FE4FF48270FFF7D4
:103880001DFE94F82D30012B11D91049002213018F
:1038900003F1804303F5E0430132087F4D7FC3F815
:1038A0001455082AC3F8100501F10201EFD194F86C
:1038B0002E20074B2AB103220020C3F804232074D2
:1038C00070BD0222F8E71120FAE700BF400F002088
:1038D00000700040680B010010B50368292B0446F6
:1038E00004D9074940F2CD10FDF7CCFF23681F2B08
:1038F00083BF03F01F03236002484FF0A04010BDB8
:103900001CF900000003005007B5019001A8FFF763
:10391000E3FF019A01239340C0F80C3503B05DF832
:1039200004FB07B5019001A8FFF7D6FF019A012318
:103930009340C0F8083503B05DF804FB13B5144B91
:10394000D3F8182112B30022C3F81821D3F8183184
:10395000104C0193019B236823B90F494FF4277042
:10396000FDF790FFE07FFF2803D0A37F5BB1FFF757
:10397000CBFF002363772372D4E90031074802B0FC
:10398000BDE810401847FFF7CCFFF2E702B010BDCA
:1039900000300240700F0020FF0B0100780F002064
:1039A0002DE9F743002406460F4600F5A0754FF4B5
:1039B0008038A1462B688BB1D6F8043308FA04F29C
:1039C0001A420BD0C5F800902B680193019BA3000D
:1039D00003F5A07398B2D7E9003198470134042C5D
:1039E00005F10405E6D103B0BDE8F08301490248C2
:1039F000FFF7D6BF940F0020008000400149024825
:103A0000FFF7CEBFA00F00200090004000234350DE
:103A100082B043580193019B02B070470A7B034672
:103A2000032A2CD8DFE802F024281C028868154AF3
:103A3000904204D1D3F84C250869904209D1886896
:103A400040F2022290421AD1D3F84C2549699142A2
:103A500015D000200622C3F80005C3F800257047E2
:103A6000D3F84C2508699042F3D1D3F83C25EDE713
:103A7000D3F84C250969EAE7D3F83C25FAE7012099
:103A8000704700BF0002040010B50368292B0446EC
:103A900004D9074940F2CD10FDF7F4FE23681F2B2F
:103AA00083BF03F01F03236002484FF0A04010BD06
:103AB0001CF9000000030050F0B50B6887B0054604
:103AC0000C4623B9484940F28620FDF7DBFED5F8C5
:103AD0002431B3B14FF492712846FFF797FFD5F820
:103AE000043173B9A368C5F808330223A360A3683F
:103AF000C5F8043301232B626B6184F82E3007B0C4
:103B0000F0BDD5F804316BB34FF48271284604F14F
:103B10000C07FFF77BFF0FCF01AE0FC63B6833608A
:103B200094F82E303BB921462846FFF777FF80F006
:103B3000010084F82E004FF4B0712846FFF766FFAD
:103B40004FF4AE71FFF762FF94F8303013B194F880
:103B50002E30CBB10023C5F80032A360234BC5F84B
:103B6000083311E04FF4A4712846FFF74FFF237B81
:103B70001BBB04F10C070FCF01AE0FC63B683360CF
:103B800094F83030002BE6D0D5F8C434C5F8C434EE
:103B90009A0724D413F0050F23D194F82E309B00FC
:103BA000DBB28DF8003094F830300BB984F82F3048
:103BB000D4E9003168469847A1E74FF40073C5F88F
:103BC000003240F20223A36003F1CE73C5F808333C
:103BD000A368C5F804330123AB602B628FE7012390
:103BE000DFE70223DDE700BF560C010002029C0163
:103BF00001490248FFF760BFAC0F002000300040D1
:103C000002494FF04020FFF757BF00BFE00F0020F0
:103C10002DE9F04F85B00646934601930C4619B93D
:103C20004349E220FDF72EFED4E900239A4203D156
:103C30003F49E320FDF726FE96F804803D4F3423EC
:103C400003FB08FA07EB0A0595F82D20002A69D135
:103C5000394A306852F82810FFF7A2FB8146002845
:103C600063D1019B47F80AB06B60A86085F830000B
:103C700085F82F00627B85F832202268039203A822
:103C8000FFF702FF039A02F5E07240F20C6540F87C
:103C9000225003A862680392FFF7F6FE039A57F8D2
:103CA0000A3002F5E07240F82250D4E90010326880
:103CB000C2F80815C2F80C05A168C2F824153BB378
:103CC000247B3568072C45F3073503D91B496B2046
:103CD000FDF7D8FD002DB6BF194B05F1604505F085
:103CE0000F054FEA4414E4B2AABF05F561455C55DF
:103CF00085F80043336843F30733002B08DB0122C8
:103D0000590903F01F0302FA03F30E4A42F8213067
:103D1000342303FB0877012387F82D30484605B08C
:103D2000BDE8F08F4FF00809F8E74FF01109F5E70B
:103D3000560C0100AC0F0020581D0100B50B01000E
:103D400014ED00E000E100E070B50D4C067934237D
:103D500003FB0643054693F82D30012B04D0094997
:103D60004FF4A570FDF78EFD2B680622C3F80025E1
:103D7000342303FB0644022384F82D3070BD00BFBA
:103D8000AC0F0020560C010070B5114C067934239D
:103D900003FB0643054693F82D3023B90D4940F245
:103DA0005510FDF76FFD34222B6802FB06440021FD
:103DB000094AA160C3F80823D3F8002222F4BC52B8
:103DC000C3F80022C3F80015012384F82D3070BD1C
:103DD000AC0F0020560C010002029C01F7B5294DE2
:103DE0000679342303FB0653044693F82D3023B998
:103DF000254940F23110FDF745FD34237343EB585C
:103E000093B1236843F30733002B0DDB5A090121DB
:103E100003F01F03994002F120031C4A42F82310CB
:103E2000BFF34F8FBFF36F8F2046FFF7ADFF2068C2
:103E3000FFF7D8FA342303FB065393F83230C3B9A3
:103E4000236801A8D3F808350193FFF71DFE019BF5
:103E500003F5E073022740F82370236801A8D3F824
:103E60000C350193FFF710FE019B03F5E07340F85A
:103E70002370342303FB0655002385F82D3003B04F
:103E8000F0BD00BFAC0F0020560C010000E100E0C7
:103E90002DE9F8430379012B04460D46174607D850
:103EA0004B68B3F5803F03D28B68B3F5803F04D3F2
:103EB000BB4940F22F20FDF7E5FC94F80490DFF8B1
:103EC000EC82342606FB09F658F80630A3B92B78A5
:103ED000022B08D02B78032B0ED1B1494FF40E7072
:103EE000FDF7D0FC08E0AE4940F23720FDF7CAFCF0
:103EF00058F80630002BEDD0342606FB0986002347
:103F0000246886F82E30EB6803F06043B3F1005F5D
:103F100003D010263046BDE8F883A24BC4F808331E
:103F200096F82F3023B1B368C4F804331126F1E7B3
:103F300017F0140F0CBF0123002386F82F30AE4674
:103F4000BEE80F0006F10C0CACE80F00DEF8003004
:103F5000CCF80030C7F3001386F830306B78C4F823
:103F600088354FF482712046FFF750FD4FF492716F
:103F7000FFF74CFD17F0010318BF0123C4F85035BB
:103F800017F0020318BF0123C4F840352B78032B28
:103F900000F2C880DFE803F08AB06B02FE0604D5A9
:103FA0007F4940F2AB10FDF76DFC380704D57C4922
:103FB0004FF4D670FDF766FC790704D5784940F2D6
:103FC000AD10FDF75FFC2B6903F06043B3F1005FB8
:103FD0009FD14FF48073C4F800326B68EA68C4F86C
:103FE00044252046C4F848354FF4A871FFF70EFD6C
:103FF0004FF4B071FFF70AFD4FF4A471FFF706FD0F
:1040000001232362A360D4F85031002BFBD04FF47E
:10401000A8712046FFF7FAFCAB682A69C4F844256A
:10402000C4F84835342303FB09835F4A9A604FF490
:104030008271082300263A0704D42A78032A1CBF79
:104040000122E250342303FB09F308EB030258F882
:104050000330002B78D07B0744BF4FF4007393608C
:10406000342303FB09839B68C4F8043352E76B686D
:10407000EA68C4F84425C4F848352B6903F0604267
:10408000B2F1005F7FF445AFAA68C4F834354FF44D
:104090008453C4F83825C4F80032342303FB098361
:1040A00040F202229A6001232362C0E76B68EA684B
:1040B000C4F8442517F0200FC4F848354FF03403F6
:1040C0000ED04FF4807203FB0983C4F800224FF432
:1040D000A471354A9A60FFF799FC01232362A8E78F
:1040E0004FF4007203FB0983C4F8002240F202225D
:1040F0009A604FF48271F0E76B68EA68C4F834257F
:10410000C4F838354FF48053C4F80032342303FB2D
:10411000098340F202229A60012323624FF48271E4
:10412000002387E74FF482710823072683E7D4F83A
:10413000243153B14FF492712046FFF767FC0123FD
:1041400023624FF48271636121440B68002BEED02F
:104150003421D4F8C434C4F8C43401FB09820020EB
:1041600082F82F0093B113F0010F14BF4FF40246F1
:10417000032648F2012213F0020F18BF164613F06F
:10418000040F48F2022318BF1E46C3E609FB018153
:104190002046FFF743FC002808BF0326BAE600BF0D
:1041A000560C010002029C0100020400AC0F00202A
:1041B0000023435082B043580193019B02B07047E3
:1041C0000A4610B54FF48E71FFF7F2FF136A91683B
:1041D000C95C136A01331362C0F81C1510BD08B521
:1041E00002464FF492710068FFF7E2FF10684FF447
:1041F0008471FFF7DDFF136801221A6008BD00001B
:1042000010B50368292B044604D9074940F2CD10A4
:10421000FDF738FB23681F2B83BF03F01F032360C8
:1042200002484FF0A04010BD1CF9000000030050F0
:1042300007B5019001A8FFF7E3FF019B03F5E073C9
:10424000022240F8232003B05DF804FB10B58B690F
:104250000A464FF4847123B9FFF7AAFFD0F8183546
:1042600010BDFFF7A5FF536AD168D0F81805C854F0
:10427000536A01335362F3E71FB501238DF8003011
:10428000044BCDE90110D3E900126846904705B010
:104290005DF804FB1410002030B54E4DD5F8043302
:1042A0009A0585B051D5D5F82431002B4DD04FF467
:1042B00092712846FFF77CFF4FF40173C5F808336D
:1042C000454B93F829200AB901226A60414902222C
:1042D0008DF80020D1F88024C1F8802403929A69D7
:1042E0000292DA6801920022C3E906226846D3E905
:1042F000001290473748D0F81C315BB1364A5169FB
:10430000136A99424ED992F82830002B4AD11146AF
:10431000FFF756FF2F48D0F84431002B57D04FF409
:10432000A271FFF745FF2C4B93F829200AB1012217
:1043300002609A69002A4AD0586AD96800229A61B4
:1043400005B0BDE83040FFF797BFD5F804335B07F1
:10435000D0D5D5F80831002BCCD01F4C1D482146B4
:10436000FFF774FF636AA2699A42C3D1E36953B14C
:10437000A3612369E168E3600023606AE36163622B
:10438000FFF77AFFB6E794F829300BB901236B6089
:10439000104B4FF40172C3F808230023606AE168F0
:1043A000A361EDE70B484FF48E71FFF701FF5369EE
:1043B000002BAFD051690291002391688DF8003035
:1043C000019153616846D2E900139847A2E705B00E
:1043D00030BD00BF00200040141000202DE9F7433D
:1043E000054691460C4619B96B49AA20FDF74AFAD1
:1043F00095F80480694E2C2303FB086393F82A3058
:10440000002B40F0C48066492868FEF7C9FF0746C4
:10441000002840F0BE8023685A1C13D001A80193E5
:10442000FFF7EEFE019A01239340C0F80835236898
:10443000019301A8FFF7E4FE019B03F5E07303225B
:1044400040F823206368581C09D001A80193FFF7A6
:10445000D7FE019B03F5E073002240F823202B6870
:10446000A269C3F82425217D637D2A680B43C2F825
:104470006C35D4E900122B68C3F81425C3F80C1569
:10448000237D012B2AD1A368591C09D001A80193CF
:10449000FFF7B6FE019B03F5E073002240F82320EE
:1044A000E3685A1C13D001A80193FFF7A9FE019AF3
:1044B00001239340C0F80835E368019301A8FFF792
:1044C0009FFE019B03F5E073032240F82320D4E90B
:1044D00002122B68C3F80825C3F810152C2303FB20
:1044E00008F3F218C2F804902269F250B9F1000FF3
:1044F00039D0286894F81C902A4A4FF48E71FFF73F
:1045000057FE28684FF4A271FFF752FE2B68C3F8DC
:1045100004232C68B9F1070F44F3073403D9224967
:104520006B20FDF7AFF9002CB6BF204B04F16044BF
:1045300004F00F044FEA49195FFA89F9AABF04F59C
:10454000614403F8049084F800932B6843F3073325
:10455000002B08DB0122590903F01F0302FA03F3C1
:10456000134A42F821302B680422C3F800252C237B
:1045700003FB08660023C6E9063386F82930736119
:10458000012386F82A30384603B0BDE8F0830827B7
:10459000F9E71127F7E700BFA70C0100141000206E
:1045A0009942000080000200B50B010014ED00E00C
:1045B00000E100E02DE9F843036806792A4D002266
:1045C000C3F800252C2303FB065304465B68B3B1F4
:1045D0000368264AC3F80823036843F30733002B14
:1045E0000DDB5A09012103F01F03994002F120035A
:1045F0001F4A42F82310BFF34F8FBFF36F8F23681A
:104600004FF0FF32D3F80C05D3F81495D3F80875A2
:10461000D3F81085C3F81425C3F80C2523689042FD
:10462000C3F80825C3F8102501D0FFF701FEB9F142
:10463000FF3F02D04846FFF7FBFDB8F1FF3F02D035
:104640004046FFF7F5FD7B1C02D03846FFF7F0FD32
:104650002068FEF7C7FE2C2303FB0655002385F8D0
:104660002A306B60BDE8F883141000208402020039
:1046700000E100E00279044B2C2101FB0233586970
:10468000003818BF01207047141000202DE9F84FA2
:10469000DFF8D48007792C2303FB0783064693F8C1
:1046A0002A30012B8946924604D02E494FF48C7053
:1046B000FDF7E8F8B9F1000F04D12A4940F21910CA
:1046C000FDF7E0F8BAF1000F04D126494FF48D70E0
:1046D000FDF7D8F83046FFF7CDFF044600283CD15F
:1046E0002C2507FB058B4FF48E71CBF814A0CBF86B
:1046F0000890CBF820008BF828003068FFF758FDB1
:10470000336801229A6030685946FFF759FDDBF89B
:1047100004305D461BBB3068DBF814402B6A9C42BA
:1047200011D83368D3F81C21002AFBD00122DA60AB
:1047300000202C2303FB078300225A61BDE8F88F79
:1047400095F828303BB9D0F81C31002BF8D05946E9
:10475000FFF736FDE2E70F20EBE71120EEE72046FA
:10476000ECE700BFA70C0100141000202DE9F8436E
:10477000464C06792C2303FB0643054693F82A3062
:10478000012B8846174604D041494FF4B670FDF717
:1047900079F8B8F1000F04D13D4940F26D10FDF7F2
:1047A00071F827B93A494FF4B770FDF76BF82C232D
:1047B00003FB0643596821B12B684FF40172C3F81B
:1047C00008232C2303FB06439A6952B1DA69002AB5
:1047D0003FD021B12B684FF40172C3F8042311209C
:1047E00035E09F61C3F80C805A6217462C2303FB07
:1047F0000643DF6193F829301BB912B92846FFF749
:10480000EEFC2C2707FB06482868D8F80430A3BB29
:104810004FF4A2714746FFF7CBFC2868D0F824215B
:10482000D0F80811D0F84431194316D1002AF4D039
:1048300000232C2101FB06440021A16112BB1BBBFC
:1048400094F829102B680122A9B11A600020BDE854
:10485000F883C3F810800122C8E753EA0209E8D1BF
:104860003946FFF7F3FCD8F82430D8F818209A42DC
:10487000D3D84A46DCE75A60E8E74FF40173C0F842
:104880000433E3E70320E2E70F20E0E71410002001
:10489000A70C01000023435082B043580193019BB1
:1048A00002B070471FB50123CDE901218DF800301A
:1048B000D0E900136846984705B05DF804FB000096
:1048C00010B50368292B044604D9074940F2CD10DE
:1048D000FCF7D8FF23681F2B83BF03F01F0323605F
:1048E00002484FF0A04010BD1CF90000000300502A
:1048F00007B5019001A8FFF7E3FF019B03F5E07303
:10490000022240F8232003B05DF804FB7FB5D0F805
:10491000246105460C46002E5CD04FF49271FFF7DF
:10492000B9FF02238DF80030D0F88034C0F880340D
:104930000393D0F83C350293E36801930023C4E964
:1049400006336846D4E900139847D5F844317BB163
:104950004FF4A2712846FFF79DFFA36943B10023DE
:10496000C4E90633E268D5F83C152046FFF79AFF04
:10497000D5F82031ABB14FF490712846FFF78AFF8C
:104980000123EB60636963B1D5F84C2502920023E3
:10499000A2688DF8003063610192D4E90013684683
:1049A0009847D5F858319BB14FF4AC712846FFF7C2
:1049B00071FF636963B1D5F84C2502920023A268A8
:1049C0008DF8003063610192D4E90013684698477E
:1049D00004B070BDD0F81031002BB6D04FF4887100
:1049E000FFF758FFD0F83C35A1699942ADD1E36992
:1049F000E26873B1D0F8003223F02003C0F800322F
:104A0000E369A3612369E360E6612046FFF74AFF9B
:104A10009BE7A361F9E7000001490248FFF776BF71
:104A2000401000200020004001490248FFF76EBFFF
:104A300064100020008002402DE9F74305469146AE
:104A40000C4619B97249CF20FCF71CFF95F8048079
:104A5000704E242303FB086393F82030002B40F0B2
:104A6000D3806D4B286853F82810FEF799FC074651
:104A7000002840F0CB8023685A1C13D001A8019372
:104A8000FFF71EFF019A01239340C0F80835236801
:104A9000019301A8FFF714FF019B03F5E0730322C4
:104AA00040F823206368581C09D001A80193FFF740
:104AB00007FF019B03F5E073002240F823202B68D9
:104AC000A269C3F82425217D637D2A680B43C2F8BF
:104AD0006C35D4E900122B68C3F80C15C3F8142503
:104AE000237D012B2AD1A368591C09D001A8019369
:104AF000FFF7E6FE019B03F5E073002240F8232058
:104B0000E3685A1C13D001A80193FFF7D9FE019A5C
:104B100001239340C0F80835E368019301A8FFF72B
:104B2000CFFE019B03F5E073032240F82320D4E974
:104B300002212B68C3F80815C3F81025242303FBB2
:104B400008F3F218C2F804902269F250B9F1000F8C
:104B500048D0286894F81C90304A4FF48871FFF7C9
:104B600099FE28684FF49071FFF794FE28684FF47F
:104B70009271FFF78FFE28684FF4A271FFF78AFE4B
:104B800028684FF4AC71FFF785FE2B68C3F8042347
:104B90002C68B9F1070F44F3073403D920496B207F
:104BA000FCF770FE002CB6BF1E4B04F1604404F00D
:104BB0000F044FEA49195FFA89F9AABF04F5614465
:104BC00003F8049084F800932B6843F30733002B19
:104BD00008DB0122590903F01F0302FA03F3124A0A
:104BE00042F821302B680822C3F80025242303FB58
:104BF00008660023C6E906337361012386F8203076
:104C0000384603B0BDE8F0830827F9E71127F7E736
:104C1000F80C010040100020601D0100100342004C
:104C2000B50B010014ED00E000E100E02DE9F843D0
:104C3000364D06790268242303FB065304465B685D
:104C4000ABB1334BC2F80833036843F30733002B8F
:104C50000DDB5A09012103F01F03994002F12003E3
:104C60002C4A42F82310BFF34F8FBFF36F8F226897
:104C7000D2F8003223F02003C2F800322368012268
:104C80005A6020684FF4AC71FFF704FE2368DA60C5
:104C90002368D3F85821002AFBD00022C3F800254E
:104CA00023684FF0FF32D3F80C05D3F81495D3F8EE
:104CB0000875D3F81085C3F80C25C3F814252368AC
:104CC0009042C3F80825C3F8102501D0FFF710FE65
:104CD000B9F1FF3F02D04846FFF70AFEB8F1FF3FA7
:104CE00002D04046FFF704FE7B1C02D03846FFF797
:104CF000FFFD2068FEF776FB242303FB0655002307
:104D000085F820306B60BDE8F88300BF40100020BC
:104D10001003420000E100E00279044B242101FB72
:104D200002335869003818BF012070474010002036
:104D30002DE9F047394F90F804A0242303FB0A73B0
:104D4000054693F82030012B8846914604D034491B
:104D500040F22D10FCF796FDB8F1000F04D1304958
:104D60004FF49770FCF78EFDB9F1000F04D12C4978
:104D700040F22F10FCF786FD2B79012B02D8B9F5F4
:104D8000803F04D326494FF49870FCF77BFD08F070
:104D90006043B3F1005F3AD12846FFF7BDFF0446F8
:104DA000002836D1242606FB0A764FF49071C6F807
:104DB0001490C6F808802868FFF76CFD4FF4AC71BA
:104DC0002868FFF767FD2B687269B168C3F844155E
:104DD000C3F848252B6801229A607368DBB92B68F9
:104DE000D3F82021D3F858010243F9D068B9012241
:104DF000DA602A68D2F85831002BFBD0242303FB59
:104E00000A7700237B61BDE8F0870F20F6E71020CA
:104E1000F9E71120F7E72046F5E700BF4010002032
:104E2000F80C01002DE9F8434B4D90F80480242341
:104E300003FB0853044693F82030012B0F46164617
:104E400004D046494FF4C070FCF71CFD27B9434914
:104E500040F28110FCF716FD26B940494FF4C170AD
:104E6000FCF710FD2379012B02D8B6F5803F04D35F
:104E70003A4940F28310FCF705FD07F06043B3F1B7
:104E8000005F67D1242303FB0853596821B12368CD
:104E90004FF40472C3F80823242303FB08539A69D0
:104EA0005AB1DA69002A43D021B123684FF4047261
:104EB000C3F804231120BDE8F8839E61DF609146AA
:104EC000242303FB08584FF48871C8F81C2020687D
:104ED000FFF7E0FC20684FF4A271FFF7DBFC2368CA
:104EE000C3F83475C3F838652368B9F1000F24D1CD
:104EF00001221A6026792368242202FB0652526896
:104F000012BBD3F81011D3F84421D3F82401114374
:104F100002D10028F5D00A46242303FB06550023BE
:104F2000984218BF03209A42AB6118BF0F20C2E716
:104F30001F6132464FF00109C2E7D3F8002242F068
:104F40002002C3F80022D5E74FF40472C3F804230B
:104F50000020B0E71020AEE740100020F80C010060
:104F600007B501A801F0FAFE20B90190019803B03D
:104F70005DF804FB019B002BF8D101230193F5E7B9
:104F800038B5044601F0E0FD0546204601F0E2FD9B
:104F9000A54203D0BDE8384003F0E8B838BD01F0C1
:104FA00013BE01F01DBE08B502F0D0FB00F07AFE82
:104FB00003F02CF901F06EFC01F080FD03F0B4F871
:104FC00003F006FB01F07CFD03F0BFF803F07CFC6E
:104FD00003F0BFF802F0E6FE02F06EFE01F050FEB4
:104FE00003F084FC01F06CFEBDE8084002F0D6BF7F
:104FF000012300221146184603F0ACB807B50B4652
:1050000000210246CDE90011084603F0A5F803B0DF
:105010005DF804FB08B590F8803033B1074B084ABF
:105020004FF4F871074803F069FE03F09DF820B9CA
:10503000054B034A4FF4FB71F4E708BD4B0D01002B
:10504000681D0100630D0100F30E010001F05CBD5D
:1050500001F06ABD704770477047084609B1FFF715
:10506000D9BF7047F7B5054616461F460C4651B1E5
:10507000FFF776FF00903B46324621462846FFF771
:10508000ECFF03B0F0BD0846F4E770477047704787
:105090007047704700F1804000F58050002382B0D7
:1050A000036003680193019B02B07047034B1868CB
:1050B00008B190F8800000F00100704798100020BF
:1050C00008B5FFF7F3FF08B1014B186808BD00BF32
:1050D0009810002000BF00BF00BF00BF00BF00BF8E
:1050E0007047000008B5084BD3F85035DBB243B920
:1050F000064BFFF7EFFFD3F83C01003818BF012043
:1051000008BD0120FCE700BF001000400070014016
:10511000134B144AC3F8482500F1804000F5805035
:10512000C3F84C0521B102F5FD424832C3F82C29E1
:105130000D4AC3F8402502F5AF3202F59672C3F866
:10514000442529B1D3F8002842F08002C3F8002892
:10515000034B8022C3F804254022C3F8042570477E
:1051600000F001403C71014010110040074B01224A
:105170001A61D3F8002222F48072C3F8002203F5EA
:10518000B0334FF48072C3F8082570470090004098
:10519000034B1B781BB1034B1022C3F80823704745
:1051A000881000200010004010B5044602F0E6FD13
:1051B000B0F5C07F0B4A12D3C009811EB1EBD41FDA
:1051C0004FEAD41396BFA4EBC1140024C31E14608D
:1051D000054AC3F31403C2F86436012010BD1460FD
:1051E0000020FBE78C1000200010004013B501A840
:1051F00001F002FD9DF805009DF8044001F038FD26
:105200009DF807309DF806201B0643EA024323431E
:10521000034A43EA0023C2F86C3602B010BD00BF57
:105220000010004008B501F07DFDBDE808400020F9
:1052300002F0BEBD08B5054BD3F8480500F07F006D
:1052400001F001FD404240B208BD00BF0010004027
:1052500038B50446FFF7EEFF23782344054613F8DC
:10526000010C01F0F7FC02B29200FF2A28BFFF22D6
:1052700029462046D2B2BDE8384002F056BF0000B1
:1052800038B5074B1D6804460146284601F09CFAD4
:1052900028B121462846BDE8384002F04CBF38BD51
:1052A0009010002010B5044601F0E2FB204602F009
:1052B0003EFFBDE8104001F00BBB10B5044601F005
:1052C000D7FB2046FFF7C4FFBDE8104001F000BB4C
:1052D000144B4022C3F808258022C3F808254FF458
:1052E0008072C3F80825104A01211161D3F8000823
:1052F00020F08000C3F800080020C3F82C091161D9
:10530000D2F8003223F48073C2F80032074B1B78C6
:105310003BB1074B4FF45052C3F80823C3F80002C7
:105320001961704700F00140009000408810002093
:1053300000100040134908B54023C1F80835802308
:10534000C1F80835FFF712FFD1F8003823F08003C9
:10535000C1F8003800220C4BC1F82C291B787BB116
:105360000A4B0A21C3F808130121C3F8002219616E
:10537000C3F84426BDE808404FF4AE70FFF78ABE7C
:1053800008BD00BF00F00140881000200010004060
:10539000104908B54023C1F808358023C1F8083505
:1053A000FFF7E4FED1F8003823F08003C1F800389D
:1053B0000022094BC1F82C291B784BB1074B4FF445
:1053C0000041C3F80813C3F8002201229A621A614F
:1053D00008BD00BF00F00140881000200010004010
:1053E000104908B54023C1F808358023C1F80835B5
:1053F000FFF7BCFED1F8003823F08003C1F8003875
:105400000022094BC1F82C291B784BB1074B4FF4F4
:10541000C021C3F80813C3F8002201221A631A61DD
:1054200008BD00BF00F001408810002000100040BF
:1054300008B50E4B01211961D3F8002222F4407205
:10544000C3F800220A4A1278043A8A4206D9094B64
:10545000094A0A4840F29E3103F050FC196120B11C
:10546000074B4FF48072C3F8082508BD0090004038
:105470008A1000205D0D0100DC1D0100CA0D010035
:1054800000F0014010B5104C4023C4F808358023CB
:10549000C4F808350120FFF7CBFFD4F8003823F01B
:1054A0008003C4F800380022084BC4F82C291B786C
:1054B00043B1074B0749C3F80813C3F80022012280
:1054C0001A631A6110BD00BF00F00140881000206F
:1054D0000010004002000408F8B504460F461646C6
:1054E00001F05CF9054680B14C4B1B78092B00F2AA
:1054F0008C80DFE803F0050C0F2054545E636C755C
:10550000022F02D0042002F053FC2846F8BDFFF71A
:105510003FFEFAE7424B1B785B0709D5002C7BD096
:10552000FFF7D6FE002EF0D0062002F000FEECE7DA
:10553000FFF7CEFEE9E7002C6ED03A4B4022C3F8CD
:1055400008258022C3F808254FF48072C3F8082587
:10555000354A01211161D3F8000820F08000C3F81A
:1055600000080020C3F82C091161D2F8003223F49E
:105570008073C2F800322D4B1B7833B12C4B2D4A6F
:10558000C3F80823C3F800021961002EBDD02A4BCE
:105590001868002380F88030FFF75AFEB5E7002C2A
:1055A0003AD0FFF76FFF002EAFD00620FFF768FE5E
:1055B000ABE7002C30D0FFF7BDFEF4E764B3FFF794
:1055C000E7FE002EA1D0012002F0B9FD9DE71CB33B
:1055D000FFF706FF002E98D0012002F0B4FD94E7FB
:1055E000104B11494022C3F808258022C3F8082532
:1055F00001220A614FF48071C3F808150B4B1B7828
:10560000002B82D00A4B1A617FE70C4B0C4A0D48E5
:1056100040F2BC5103F072FB254676E78A10002069
:105620008910002000F00140009000408810002008
:105630000010004002000008981000205D0D0100DD
:10564000ED1D0100CA0D0100054B002282B0C3F818
:105650003C21D3F83C310193019B02B0704700BF5D
:1056600000700140F8B52B4B1B7807460D461646D7
:1056700013B900242046F8BD047801F052FE6301FE
:1056800000283BD103F1EE000DB1A83080B202F04A
:105690004BFB04460028ECD001F064FA1E4B1F4A75
:1056A000C3F80C05002D08BF4FF4A012C3F8047511
:1056B0004FF4B670C3F80022FFF7ECFC0DB34FF4C3
:1056C000A470FFF7E7FC164A1649134F4FF4827097
:1056D000FFF7E0FC0B7842F0020223F00803AD0074
:1056E0000B7005F0FC00C7F804230121FFF7ACFFA5
:1056F000FFF70EFD46B901233B61BBE703F24E40C5
:10570000C2E74FF00062DFE7FFF7ECFC0028F2D0C1
:10571000B0E700BF881000200010004000381400DF
:10572000000004088910002038B5144B1B7805468A
:10573000EBB1AE2002F0F8FAC8B1114C4FF420538F
:10574000C4F800324FF4A470FFF7A4FC4FF4A27029
:10575000FFF7A0FC4FF4C023C4F804330121042058
:10576000FFF772FFFFF7D4FC15B90123236138BDA1
:10577000FFF7B8FC0028F8D0F9E700BF8810002038
:1057800000100040144938B54023C1F8083518B15D
:10579000124B5222C3F80022114B124A0F4C012522
:1057A0001D618023C1F8043513784FF4947023F001
:1057B00007031370FFF76EFC1823C4F86035FFF77A
:1057C00043FF40230848C1F8043501F0B3FAFFF75E
:1057D00089FC00B9256138BD00F00140001000408F
:1057E00000900040891000203011004038B5044678
:1057F00001F0B8F9084D0021C5F80C050846FFF77F
:1058000023FFFFF785FC14B901232B6138BDFFF797
:1058100069FC0028F8D0F9E70010004038B5114BBA
:105820001B780546C3B1104B1868FFF7BDFC98B153
:105830000E4C4FF40042C4F800224FF49E70FFF764
:1058400029FC0121C4F804230420FFF7FDFEFFF723
:105850005FFC15B90123236138BDFFF743FC002825
:10586000F8D0F9E7881000208C10002000100040CC
:105870000B3808B5C3B20F2B06D9094B094A0A48A1
:1058800040F2052103F03AFA00EB800000F66510C3
:10589000064B80B2A0F51660C3F8080508BD00BF2E
:1058A000360E01001A1E0100CA0D01000010004052
:1058B000084B0222C3F88020BFF34F8FBFF36F8FD6
:1058C000C3F88021002283F80123BFF34F8FBFF379
:1058D0006F8F704700E100E008B5064B1B7833B1CD
:1058E00002F04CFA3B2894BF0020012008BD0120A3
:1058F000FCE700BF8810002008B501F0B7F820B120
:10590000FFF7EAFF10B901F051F8002008BD0000D0
:1059100038B5464B1B780546002B7FD0444A137898
:1059200023F01703137001F01DF9424AC2F80C0569
:10593000FFF7BCFB0446002871D0FFF7C1FB3E4BCC
:10594000C2F80405C2F800321823C2F860354FF4DB
:105950009A70FFF79FFB4FF49470FFF79BFB4FF497
:105960009870FFF797FB354935484FF45053C2F80C
:105970000433D1F8003243F48073C1F800320123BC
:10598000C1F840358223C1F84435FFF75DFE2D4B49
:105990002D4AC3F84825C3F84C0500F5F030C3F88C
:1059A0002C09C3F85025C3F85415D3F8002842F049
:1059B0008002C3F80028254AC3F8402502F5AF321B
:1059C00002F59672C3F844258022C3F804254FF4EB
:1059D0008072C3F80425A0F5EF304022C3F80425F7
:1059E000D43801F0A7F9E5B9124B01221A61ACB91C
:1059F00001F054F9164B1860FFF758FB70B1FFF730
:105A00005FFB0C4B0C4AC3F80405C3F80022D3F823
:105A10005025D2B2022A04BF01229A6038BD522317
:105A200090E7FFF75FFB0028DED0E0E7881000205A
:105A30008910002000100040520008000090004033
:105A40000410004000F001403C7101401011004082
:105A5000981000202DE9FF410446002800F0AF8097
:105A600002F08CF93B2840F2FB807F4E337803F044
:105A7000FF07002B40F0F4807C4C01250F233946B2
:105A8000C4F8FC7F0D22C4F8FC5F6846C4F81035EA
:105A900003F0E2F808238DF800307F238DF80830FA
:105AA0009DF807309DF801208DF806505B0743EA0A
:105AB00002239DF8022043EA02439DF8032043EAB3
:105AC00002539DF8042043EA825343F0C0634FF031
:105AD000020843F008038DF80580C4F814359DF8DA
